:100000000C94190C0C94410C0C94410C0C94410C64
:100010000C94410C0C94410C0C94410C0C94410C2C
:100020000C94410C0C94410C0C9446120C94B51297
:100030000C94410C0C94410C0C94410C0C94410C0C
:100040000C94410C0C94410C0C94410C0C94410CFC
:100050000C94410C0C94410C0C94410C0C94E7143E
:100060000C94410C0C94410C0C94410C0C94410CDC
:100070000C94410C0C94410C0C94410C0C94410CCC
:100080000C94410C0C94410C0C94410C0C94410CBC
:100090000C94410C0C94410C0C94410C0C94410CAC
:1000A0000C94410C0C94410C0C94410C03081F055A
:1000B0001F1F151B1F11111F110E1F15111F0501E9
:1000C0001F111D1F041F001F0010101F1F041B1FE6
:1000D00010101F061F1F011F1F111F1F05071F31B3
:1000E0001F1F051B17151D011F011F101F0F100FCC
:1000F0001F0C1F1B041B071C071915130C121E1FB6
:10010000120C1E12120C121F0C1A14041F052E2A98
:100110001E1F021C001D00201D001F041A011F00CD
:100120001E041E1E021E1E121E3E120C0C123E1E2D
:10013000020614120A020F121E101E0E100E1E08C6
:100140001E1A041A2E281E1A12161F111F001F0035
:100150001D151711151F07041F17151D1F151D014C
:10016000011F1F151F17151F0017000010000000AA
:100170000000003E5B4F5B3E3E6B4F6B3E1C3E7C87
:100180003E1C183C7E3C181C577D571C1C5E7F5E35
:100190001C00183C1800FFE7C3E7FF0018241800F4
:1001A000FFE7DBE7FF30483A060E2629792926408B
:1001B0007F050507407F05253F5A3CE73C5A7F3EB7
:1001C0001C1C08081C1C3E7F14227F22145F5F0049
:1001D0005F5F06097F017F006689956A60606060E5
:1001E0006094A2FFA29408047E040810207E2010D0
:1001F00008082A1C08081C2A08081E101010100CD9
:100200001E0C1E0C30383E3830060E3E0E06000026
:1002100000000000005F00000007000700147F14CA
:100220007F14242A7F2A1223130864623649562039
:10023000500008070300001C2241000041221C005E
:100240002A1C7F1C2A08083E08080080703000081D
:1002500008080808000060600020100804023E51F1
:1002600049453E00427F4000724949494621414983
:100270004D331814127F1027454545393C4A4949EA
:100280003141211109073649494936464949291E54
:100290000000140000004034000000081422411443
:1002A00014141414004122140802015909063E4195
:1002B0005D594E7C1211127C7F494949363E4141BD
:1002C00041227F4141413E7F494949417F09090916
:1002D000013E414151737F0808087F00417F410082
:1002E0002040413F017F081422417F404040407F31
:1002F000021C027F7F0408107F3E4141413E7F097E
:100300000909063E4151215E7F09192946264949BE
:10031000493203017F01033F4040403F1F204020FE
:100320001F3F4038403F63140814630304780403FC
:100330006159494D43007F414141020408102000AA
:100340004141417F0402010204404040404000031B
:1003500007080020545478407F28444438384444E7
:100360004428384444287F385454541800087E09DF
:100370000218A4A49C787F0804047800447D4000FF
:100380002040403D007F1028440000417F40007C19
:10039000047804787C080404783844444438FC1811
:1003A00024241818242418FC7C08040408485454F5
:1003B000542404043F44243C4040207C1C20402022
:1003C0001C3C4030403C44281028444C9090907C89
:1003D0004464544C4400083641000000770000009B
:1003E0004136080002010204023C2623263C1EA1DD
:1003F000A161123A4040207A38545455592155553C
:1004000079412154547841215554784020545579EC
:10041000400C1E527212395555555939545454597D
:1004200039555454580000457C410002457D420036
:1004300001457C40F0292429F0F0282528F07C543F
:100440005545002054547C547C0A097F493249495F
:1004500049323248484832324A4848303A414121CC
:100460007A3A42402078009DA0A07D394444443926
:100470003D4040403D3C24FF2424487E4943662BB8
:100480002FFC2F2BFF0929F620C0887E090320545A
:100490005479410000447D413048484A3238404058
:1004A000227A007A0A0A727D0D19317D2629292FB8
:1004B00028262929292630484D40203808080808D0
:1004C00008080808382F10C8ACBA2F102834FA00D2
:1004D000007B000008142A142222142A1408950014
:1004E000220095AA005500AAAA55AA55AA00000004
:1004F000FF00101010FF00141414FF001010FF0074
:10050000FF1010F010F0141414FC001414F700FF86
:100510000000FF00FF1414F404FC141417101F1043
:10052000101F101F1414141F00101010F0000000F2
:10053000001F101010101F10101010F010000000FD
:10054000FF101010101010101010FF10000000FF0E
:10055000140000FF00FF00001F10170000FC04F44F
:1005600014141710171414F404F40000FF00F71407
:10057000141414141414F700F7141414171410108E
:100580001F101F141414F4141010F010F000001FAA
:10059000101F0000001F14000000FC140000F010E9
:1005A000F01010FF10FF141414FF141010101F008F
:1005B000000000F010FFFFFFFFFFF0F0F0F0F0FF91
:1005C000FFFF0000000000FFFF0F0F0F0F0F384468
:1005D0004438447C2A2A3E147E02020606027E0229
:1005E0007E0263554941633844443C04407E201EEA
:1005F0002006027E020299A5E7A5991C2A492A1C19
:100600004C7201724C304A4D4D303048784830BC05
:10061000625A463D3E494949007E0101017E2A2A2F
:100620002A2A2A44445F444440514A444040444AB0
:1006300051400000FF0103E080FF000008086B6BE1
:10064000083612362436060F090F06000018180067
:1006500000001010003040FF0101001F01011E00CA
:10066000191D1712003C3C3C3C0000000000F0F853
:100670009C8E8783878E9CF8F00000FEFF030303A7
:100680000303070EFCF80000FEFF03030303030748
:100690000EFCF80000FFFF00000000000000FFFF5C
:1006A0000000FEFF8383838383C7EE7C380000F85D
:1006B000FC0E07030303070EFCF800003F7FE0C0B9
:1006C0008080C0E07F3FFFFF01010101010101FFC8
:1006D000FF0000FFFF0C0C0C0C1C3E77E3C1000078
:1006E0007FFFC0C0C0C0C0E0703F1F00001F3F7050
:1006F000E0C0C0C0E0703F1F00007FFFC1C1C1C1AA
:10070000C1E3773E1C00001F3F70E0C0C0C0E07036
:100710003F1F000000000001FFFF01000000D5F0B6
:100720008D14A1C881CFD9F1AF20004166746572E4
:10073000207965617273206F660A696E7374616CEB
:100740006C696E6720616E640A636F6E66696775B7
:1007500072696E672C20796F75206172650A6E6F01
:10076000772072656164792E20476F20616E640A7C
:1007700073686F772074686520776F726C6420747B
:100780006861740A746865792063616E6E6F740ABB
:10079000636F6D70726568656E6420796F75720A3B
:1007A000756C74696D61746520706F7765722E2049
:1007B000202020202020202020202000804000FE1B
:1007C00002020242428282020202020202C2424249
:1007D0004282028242424282028242424282028239
:1007E000C2A2A2220282424242820242E242420269
:1007F00002824242424202E2424242820202020239
:1008000002020202020202020202020202020202C8
:10081000020202C2F2020202020202020202020208
:1008200002020202020202020202020202020202A8
:10083000020202020202020202020202FE0000FFA3
:100840000000000404020201000000000007000094
:10085000000700030505050100030404040300006C
:10086000070000000003050505010000030404045F
:100870000003040404040007000000070000000057
:1008800000000000000000000000000000000080E8
:10089000E0F8FFFFFFFFFCE0C000000000000000E8
:1008A0000000000000000000000000000000000048
:1008B000000000000000000000000000FF0000FF3A
:1008C000000000FC44444438003854545418007C60
:1008D00008040404007E20102844002400000000C6
:1008E000007E44444438007C08040404002054542E
:1008F00054780038444444FC00000000000000002C
:10090000000000000000000000000080C0F0FEFFBA
:10091000FFFFFFFFFFFFFFFFFFFCF0E08000000094
:1009200000000000000000000000000000000000C7
:10093000000000000000000000000000FF0000FFB9
:1009400000000080404040400080404040800080E7
:100950004040408000E00000400000000000A00097
:10096000C0404040800080C0A0A0200000000000E7
:100970000000000001010100000000000000000074
:100980000000000000000000C0F0FCFFFFFFFFFFC0
:10099000FFFFFFFFFFFFFFFFFFFFFFFFFFFEF0E096
:1009A00080000000000000000000000000000000C7
:1009B000000000000000000000000000FF0000FF39
:1009C00000000003040404040003040404030003FF
:1009D00004040403000304000200000000000700F8
:1009E00007000000070000070000000000000000F2
:1009F00000000000000000000000000000000000F7
:100A000000000000C0E0FCFEFFFFFFFFFFFFFF1F34
:100A100007030301010101010103071FFFFFFFFF9E
:100A2000FFFFFCF8E0800000000000000000000074
:100A3000000000000000000000000000FF0000FFB8
:100A400000002054545478007C0804040400384406
:100A5000444444007E0404047800240000000000A4
:100A60002054545478000C3040300C007C080404AE
:100A7000040000000000000000000000000000C0B2
:100A8000E0F8FCFFFFFFFFFFFFFFFFFFFF7F3F18C6
:100A90000000000000000000003070FCFFFFFFFFBE
:100AA000FFFFFFFFFFFFFFFCF8F0800000000000E9
:100AB000000000000000000000000000FF0000FF38
:100AC00000000040408080000000000000C0A0A0A6
:100AD000A0C000000000000000E0A0A0A0200000D6
:100AE0000000000000000000000000000000000006
:100AF000000000000000000080C0E0F0F8FCFFFFF4
:100B0000FFFFFF7F3F3F1F1F0F070703000000008D
:100B10000000000000000000000000000003070FBC
:100B20000F1F1F3F3F7F7F7FFFFFFFFFFCF8F0C0DD
:100B3000808000000000000000000000FF00007F37
:100B40004040404444424241404040404047404091
:100B50004047404444444444404740404040404073
:100B60004040404040404040404040404040404085
:100B70004040404040444647474743434343414148
:100B80004040404040404040404040404040404065
:100B90004040404040404040404040404040404055
:100BA000404040404040404040404141414141413F
:100BB0004141414040404040404040407F008040F3
:100BC0000000000000000000000000000000000025
:100BD0000000000000000000000000000000000015
:100BE0000000000000000000000000000000000005
:100BF00000000000000000000000000000000000F5
:100C000000000000000000000000000000000000E4
:100C100000000000000000000000000000000000D4
:100C200000000000000000000000000000000000C4
:100C300000000000000000000000000000000000B4
:100C400000000000000000000000000000000000A4
:100C5000000000000000000000000000E080808034
:100C6000E000004040408000C0000000C000804024
:100C70004040800000000000C0000000C000804034
:100C800040408000C0000000C00000000000804024
:100C900040408000C0000000C00080404040800014
:100CA000C080404040000000000000000000000044
:100CB0000000000000000000000000000000000034
:100CC0000000000000000000000000000000000024
:100CD000000000000000000000000000070000000D
:100CE00007000205050507000003040300000305D3
:100CF0000505010000000000030404040F000304C4
:100D000004040300030404040700000000000305BA
:100D100005050100000304030000030505050100AB
:100D200007000000000000000000000000000000BC
:100D300000000000000000000000000000000000B3
:100D400000000000000000000000000000000000A3
:100D50000000000000000000000000000000FC088F
:100D60000808F00070A8A8A8300040A8A8A8F000C3
:100D7000F8100808080070888888FC00000000004F
:100D800070888888700010F81414040000000000B7
:100D9000087C88888000FC080808F00070A8A8A8D3
:100DA0003000000000000000000000000000000013
:100DB0000000000000000000000000000000000033
:100DC0000000000000000000000000000000000023
:100DD0000000000000000080808000000000000093
:100DE0000000000000008000000000000000800003
:100DF00000000000000000000000000000000000F3
:100E000000000000000000008000800000000000E2
:100E10000000008000000000000000000000000052
:100E200000000000808080800000000000000000C2
:100E300000000000000000000000000000000000B2
:100E400000000000000000000000000000000000A2
:100E50000000000000001F0202021F001F0201012B
:100E600001000E1111111F000F1010101F001F1193
:100E700011110E000E1111110E000F5050503F00B5
:100E8000000000000E1111111F001E001215151593
:100E90000800010F111110001F02010101000E11C5
:100EA00011110E00000014020100000000000000FB
:100EB0000000000000000000000000000000000032
:100EC0000000000000000000000000000000000022
:100ED0000000000000000000000000000000000012
:100EE0000000000000000000000000000000000002
:100EF00000000000000000000000000000000000F2
:100F000000000000000000000000000000000000E1
:100F100000000000000000000000000000000000D1
:100F200000000000000000000000000000000000C1
:100F300000000000000000000000000000000000B1
:100F400000000000000000000000000000000000A1
:100F50000000000000000000000000000000000091
:100F60000000000000000000000000000000000081
:100F70000000000000000000000000000000000071
:100F80000000000000000000000000000000000061
:100F90000000000000000000000000000000000051
:100FA0000000000000000000000000000000000041
:100FB0000000000000000000000000000000000031
:100FC0008040000088949494640070888888700041
:100FD00080008000800000000000087C888880007D
:100FE000FC080808F00040A8A8A8F000087C888841
:100FF000800000000000FC14141408007088888829
:101000007000FC4020508800F400087C8888800034
:10101000087C888880007088888870000000000044
:1010200000000000000000000000000000000000C0
:1010300000000000000000000000000000000000B0
:1010400000000000E800F0101010E00020505050A8
:10105000800010F81010000080505050E000F800A0
:1010600000F8000080505050E00010F81010000010
:10107000E800E0101010E000F0101010E000000098
:101080000000F000F000F000E05050506000F01060
:101090001010E00010F81010000000000000805058
:1010A0005050E000F000F000F000F02010101000B0
:1010B000F0000000F00008084828100000000000C0
:1010C0000000000001000100000001000101010119
:1010D0000000000001010100000101010100000108
:1010E00000000100000101010100000001010100F8
:1010F00001000001010100000100000001000000EA
:1011000000000001000100000001010100000100D9
:1011100000000100000001010100000000000001CA
:10112000E1E1E1E0E0E1E0E1E0E0E1E0E0E0E0E0B9
:10113000E0E5E5E5E3E0E0E0E1E0E0E0E00000003C
:101140000000000000000000E0FCFCFCFEFEFEFED3
:10115000FEFEFEFEFEFEFEFEFEFEFEFEFEFCFCF8B9
:10116000E0000000000000000000000000FEFE069D
:10117000060606060606060606068686860606068F
:10118000060606060606868686868606060606067F
:1011900006060606060606FEFE0000000000000029
:1011A000FFFFFFFFFFFFFFFFFFFFFFFFFFFFFFFF4F
:1011B000FFFFFFFFFFFFFFFFFFFFFFFFFF0000003C
:1011C0000000000000000000FFFFFFFFFF7F7E7FA8
:1011D0007F7F7F7F7F7F7F7F7F7E7F7F7FFFFFFFA0
:1011E000FF000000000000000000000000FFFF0002
:1011F0000000001212120000003F61404000000099
:10120000000000000000FF0808080C0700000000B4
:1012100000000000000000FFFF00000000000000D0
:10122000FFFFFFFFFFFFFFFFFFFFFFFFFFFFFFFFCE
:10123000FFFFFFFFFFFFFFFFFFFFFFFFFF000000BB
:1012400000000000000000000F1F1F1F1F1F1FDFF6
:10125000DFDFDFDFDFDFDFDFDFDFDFDF1F0F0F0FCE
:101260000F000000000000000000000000FFFF0071
:10127000000000000000000000000000000000006E
:10128000000000000000000000000000000000005E
:1012900000000000000000FFFF0000000000000050
:1012A000FFFFFFFFFFFFFFFFFFFFFFFFFFFFFFFF4E
:1012B000FFFFFFFFFFFFFFFFFFFFFFFFFF0000003B
:1012C000000000000000000000000000000000FF1F
:1012D000FFFFFFFFFFFFFFFFFFFFFFFF000000001A
:1012E000000000000000000000000000000F0F0CD4
:1012F0000C0C0C0C0C0C0C0C0C0C0C0C0C0C0C0C2E
:10130000FCFCFCFCFCFCFC0C0C0C0C0C0CFC8C0C1D
:101310000C0C0C0C0C0C0C0F0F000000000000005B
:10132000FFFFFFFFFFFFFFFFFFFFFFFFFFFFFFFFCD
:101330000707FF0707FF07C7C707FFFFFF000000FA
:10134000000000000000000000000000000000FF9E
:10135000FFFFFFFFFFFFFFFFFFFFFFFF0000000099
:10136000000000000000000000000000000000007D
:101370000000000000000000000000000018181825
:101380001F1F1F1F1F1F1F1818180000000001013A
:10139000030202020202020202020202020202022C
:1013A0001F1F1F1F1F1F1F1F1F1F1F1F1F1F1F1F4D
:1013B0001C1C1F1C1C1F1C1C1C1C1F1F1F000000B2
:1013C000000080400000000000000000000000005D
:1013D000000000000000000000000000000000000D
:1013E000000000008000808080808080808080807D
:1013F00080808080808080808080808080808080ED
:1014000080808080808080808080808080808080DC
:10141000808080800080000000000000000000004C
:1014200000000000000000000000000000000000BC
:1014300000000000000000000000000000000000AC
:10144000000000000000000000F8102010F80080EC
:10145000505050E000E0101010F800E05050506084
:1014600000000000FE010000000000C0C0C0F8F84D
:10147000F8383838383838C0C0C0000000000000E4
:10148000000000000000000000000000000000005C
:101490000000000001FE000000F8141414F800F829
:1014A000100808080070888888FC0078808080F820
:1014B00000FC888888700070888888700078808038
:1014C00080F80000000000000001000000010000A2
:1014D0000101010100000101010100000101010001
:1014E00000000000FF000000FEFEFEFFFFFF010104
:1014F000018E8E8E8E8E8E010101FEFEFE0000009A
:1015000000000000000000000000000000000000DB
:101510000000000000FF00000000000000000000CC
:10152000000000E0408040E000804040408000C07B
:101530004080408000804040408000000000020267
:1015400002010000000000000000000080C0A0A018
:101550002000804040408000C080404040000000AB
:1015600000000000FF0000001F1F1FFFFFFFE0E062
:10157000E01F1F1FFFFFFFE0E0E01F1F1F00000034
:101580000C1E1E1E1E1E1E1E1E1E1E1E1E1E0C00BD
:101590000000000000FF000000000000000000004C
:1015A0000000000700000007000305050501000713
:1015B000000700070003050505010000000000000A
:1015C0000000000000000000000000000007000014
:1015D00000000304040403000700000000000000F2
:1015E00000000000FF000000000000000080C0803C
:1015F000C080C080C08000000000000000F8F8F843
:10160000FFFFFF070707C7C7C7C7C7C7C7C7C73891
:101610003838000000FF000000000000000000005B
:1016200000000078849494740040A8A8A8F000F802
:1016300008F008F00070A8A8A83000000000000022
:10164000000000000000000000000000800000001A
:10165000008000000000000000000000000000000A
:1016600000000000FF0000000000000055FF808027
:101670009490948080FF55000000000000FFFFFF61
:10168000FFFFFF000000F1F1F17171710F0F0F000A
:101690000000000000FF000000000000000000004B
:1016A00000000000000000008080800000000000BA
:1016B000000000000000000000000000000000002A
:1016C0000000000000000000000000010F111110D8
:1016D000001F0101011E000E151515060000000077
:1016E000000000007F8000000000000000000100FA
:1016F00001000100010000000000000000030303DE
:101700001F1F1F1C1C1C030303000000000000001F
:1017100000000000807F00000000000000000000CA
:101720000000000000001010100F00000815151533
:101730001E001F011E011E0000000000000000002E
:101740000000000000000000000000000000000099
:101750000000000000000000000000000000000089
:10176000000000000100010101010101010101016E
:101770000101010101010101010101010101010159
:101780000101010101010101010101010101010149
:101790000101010100010000000000000000000044
:1017A0000000000000000000000000000000000039
:1017B0000000000000000000000000000000000029
:1017C00000000000080B00020202000009040000F3
:1017D000010202000005240010010524010101049A
:1017E00024020605240600010705810310004009B4
:1017F000040100020A000000070502024000000781
:101800000583024000000403090412010002EF02F4
:1018100001404123368000010102030141726475D9
:10182000696E6F204C4C430041726475626F7900A1
:10183000641511241FBECFEFDAE0DEBFCDBF11E08B
:10184000A0E0B1E0ECE5F0E402C005900D92AC360A
:10185000B107D9F726E0ACE6B1E001C01D92A1378F
:10186000B207E1F71CE0C9E1DCE004C02197FE010A
:101870000E942620C831D107C9F70E94E9150C94AF
:101880002C200C940000E1EAF1E0A0E0B8E0008038
:101890000EBC8111012C1197A0FDFDCF0192B9F76B
:1018A0000DB40895480F592F511D1416150684F5CF
:1018B000803891056CF597FF02C090E080E04138D8
:1018C000510514F040E850E0481BFB01E770FF278A
:1018D00021E001C0220FEA95EAF777FF02C0695FB5
:1018E0007F4FFB0133E0F595E7953A95E1F7F695E3
:1018F000FE2FEE27F795E795E80FF91FEF55FE4FFE
:10190000415030F08191DF011197822B8C93F8CFF9
:1019100008958091A00183FD09C080919F0183FFFC
:1019200005C08091F5058F5F8093F5050895FC0152
:1019300080919E01882311F13FB7F89482E0809353
:10194000E9002091F200822F90E01816190614F495
:1019500081E090E0882339F0289844E640939D0187
:101960004091F1004083222339F02091F2002111AF
:1019700003C02BE62093E8003FBF08958FEF9FEF51
:1019800008952FB7F89483E08093E9009091E800E0
:10199000892F807295FF04C09091F20080E4891B2A
:1019A0002FBF08958091950181110DC082E0809331
:1019B000910184E08093920110929401109293011E
:1019C00081E08093950181E991E00895CF93DF93C1
:1019D0001F92CDB7DEB76983DC01ED91FC910280E7
:1019E000F381E02D41E050E0BE016F5F7F4F09952C
:1019F0000F90DF91CF91089583E08093E90080916B
:101A0000F200882319F08AE38093E80008950E9489
:101A1000C10C90E00895CF93DF931F92CDB7DEB74E
:101A2000FC018485958597FD08C02FEF3FEF358732
:101A300024870F90DF91CF910895CE0101960E94E7
:101A4000970C019719F4898190E0F3CF8FEF9FEF06
:101A5000F0CF0F931F93CF93DF931F92CDB7DEB7D5
:101A60008C01FC018485958597FF0BC0CE01019602
:101A70000E94970C019771F4898190E0F801958795
:101A80008487F801848595850F90DF91CF911F9110
:101A90000F9108958FEF9FEFF1CFFC01848595851D
:101AA00097FD0BC09FB7F89482E08093E900809186
:101AB000F2009FBF90E0019608959FB7F89482E0EE
:101AC0008093E9008091F2009FBF90E008954091DB
:101AD0008B0150918C012091890130918A0142172C
:101AE0005307B4F49091E8009570E1F39091E80009
:101AF00092FD19C08093F10080918B0190918C012F
:101B000001968F739927892B19F48EEF8093E80043
:101B100080918B0190918C01019690938C01809320
:101B20008B0181E0089580E00895DF92EF92FF92AB
:101B30000F931F93CF93DF93D82E8A01EB017B0184
:101B4000E40EF51ECE15DF0559F0D7FE12C0FE01DA
:101B500084910E94670D21968111F4CF0FEF1FEF42
:101B6000C801DF91CF911F910F91FF90EF90DF900F
:101B700008958881EECF0F931F93CF93DF931F9229
:101B8000CDB7DEB782E0898342E450E064EC77E1D0
:101B900080E80E94950D0E94D20CDC0112960D91F6
:101BA0001C910115110589F0D801ED91FC9102807D
:101BB000F381E02DBE016F5F7F4FC801099597FD4E
:101BC00004C0F80100851185ECCF89810F90DF9169
:101BD000CF911F910F910895615030F02091F10045
:101BE000FC0120830196F8CF289884E680939D011C
:101BF0000895FC010E94900E319728F068517C4FA7
:101C00008F4F9F4FF9CFAB01FC010E94900E6417DC
:101C100075078E079F07C8F308958F929F92AF9222
:101C2000BF92CF92DF92EF92FF920F931F93CF93C9
:101C3000DF936C017B018A0180910B01882309F4F9
:101C40005AC080919E01882309F455C0809190016B
:101C500080FF05C08091E00082608093E000E80191
:101C6000B12C8AEFA82E93E0892E2AE3922E20979A
:101C700011F4BB20C9F10E94C10C811108C0AA94C3
:101C8000AA20C9F181E090E00E94F90DF0CF8C17F5
:101C90001D0611F00CF08C2F9FB7F8948092E9008C
:101CA0002091E80025FD02C09FBFE1CF282F30E042
:101CB000C21BD30BF701815020F041914093F100FA
:101CC000FACFE20EF31EBB2021F09092E800B12C77
:101CD000EBCF8091E80085FDE7CF9092E800BB2430
:101CE000B394209709F3F3CF5D9884E680938F0136
:101CF000101611063CF081E090E0F6019383828398
:101D000010E000E0C801DF91CF911F910F91FF908B
:101D1000EF90DF90CF90BF90AF909F908F900895FD
:101D2000A5E8B1E02FB7F8947D918D919C9166B5AF
:101D30002FBFA89B05C06F3F18F47F5F8F4F9F4F49
:101D400022E0660F771F881F991F2A95D1F7089503
:101D5000AF92BF92CF92DF92EF92FF920F931F93B9
:101D6000CF93DF936C017B018B01040F151FEB01F7
:101D70005E01AE18BF08C017D10759F06991D601AE
:101D8000ED91FC910190F081E02DC6010995892B20
:101D900079F7C501DF91CF911F910F91FF90EF90DF
:101DA000DF90CF90BF90AF9008954F925F926F9267
:101DB0007F928F929F92AF92BF92CF92DF92EF92DB
:101DC000FF920F931F93CF93DF934C015901FC2D8A
:101DD000C02FD0E0CE01880D991D181619060CF001
:101DE00067C09B012E0D311D121613060CF060C04A
:101DF000603471050CF05CC04115510509F458C000
:101E0000262F2770F22EDB0177FD179633E0B5956C
:101E1000A7953A95E1F73A2F77FF04C0FF2011F01C
:101E20003FEF3A0F662777276819790997FC02C0B8
:101E300070E060E0803891050CF44BC090E8981990
:101E4000961BA32F032E000CBB0B1A2F10953F3FA0
:101E50000CF010E021E08E2D877009F420E0E6946C
:101E6000E694E694E20EAE0DB11D19971CF028E041
:101E7000E22EE31AE11A310F20E83203D0011124D7
:101E8000A80DB91DA60FB71F019F600D711D11246C
:101E9000460F571F0F2D0F2C000C110BF33009F4B8
:101EA0001CC1C8F4F13009F4D0C0F23009F47CC090
:101EB000DF91CF911F910F91FF90EF90DF90CF9026
:101EC000BF90AF909F908F907F906F905F904F905A
:101ED0000895902FB5CFFA3FB1F1232F2E0DFB3F80
:101EE00039F7321729F3BD016F557E4FD12CC12C24
:101EF000C91608F0A4C0FA01EC0DFD1DE491F0E054
:101F00004F01002E02C0880C991C0A94E2F737FD9D
:101F100006C0FB018081E82CE0948E218083FF20A5
:101F200061F0373054F45B01F0E8AF0EB11CE92CDE
:101F3000E094F50180818E218083FFEFCF1ADF0AC4
:101F40006F5F7F4FD5CF232F2E0D321709F4B0CFFF
:101F5000BD016F557E4FD12CC12CC91608F069C048
:101F6000FA01EC0DFD1DE491F0E04F01002E02C0DE
:101F7000880C991C0A94E2F737FD04C0FB018081AC
:101F800088298083FF2051F0373044F45B01F0E86A
:101F9000AF0EB11CF501808189298083FFEFCF1A34
:101FA000DF0A6F5F7F4FD9CF6FEF70E00F2C02C059
:101FB000660F771F0A94E2F760957095772E232FAE
:101FC0002E0D321709F474CFFD01EF55FE4F6F014E
:101FD000B12CA12CA91638F5FA01EA0DFB1DE491EC
:101FE000F0E02F01002E02C0440C551C0A94E2F7C9
:101FF00037FD05C0F6018081862384298083FF2078
:1020000059F037304CF44601F0E88F0E911CF40182
:102010008081872185298083FFEFAF1ABF0A8FEF68
:10202000C81AD80AD7CF3F5F4C0F5D1FA058BF4FCB
:10203000C8CF3F5F4C0F5D1FA058BF4F86CF3F5F9B
:102040004C0F5D1FA058BF4F4CCF6A0D7B1D232F37
:102050002E0D321709F42CCFFD01EF55FE4F6F0105
:10206000B12CA12CA91688F5FB01EA0DFB1D84906B
:10207000912C002E02C0880C991C0A94E2F78094DF
:102080009094FA01EA0DFB1D6490712C002E02C0A1
:10209000660C771C0A94E2F737FD05C0F6018081D3
:1020A000882186298083FF2049F037303CF4F601EF
:1020B000E058FF4F8081892187298083FFEFAF1A85
:1020C000BF0A8FEFC81AD80ACDCF3F5F4C0F5D1FF4
:1020D0006C0F7D1FA058BF4FBCCFC92ED12CFA0169
:1020E000E60FF71FAF55BE4F00E810E00C191D09B1
:1020F000CC19DD09BE01660F771F41E050E06A018F
:102100000F2C01C0CC0C0A94EAF7592F2E2D792EF2
:10211000CF93DF93ED01EF96EF9622968590A590F1
:10212000FF2059F08C9C4001AC9C500137302CF4BE
:10213000E880B094EB20E928E99233233AF0EC9060
:10214000A094EA20E828ED920C94A71011965A95D5
:1021500029F72A9551F0572D33951124E60FF11DDB
:10216000A00FB11DC00FD11DD9CFDF91CF91112488
:102170009FCECF92EF920F93FC0104913196E490A1
:10218000AC014E5F5F4F82E0C82E30E020E070E08F
:1021900060E090E080E00E94D50E0F91EF90CF902C
:1021A000089590E00C94F90D8FB18095807F669B27
:1021B00088601C9B8460089590E1282F81E061FD78
:1021C00084E060FD880F62FD8295687F969FD00154
:1021D0001124A20FAF55BE4F0C90082A40FF0826CD
:1021E0000C920895EF92FF920F931F93CF93DF937A
:1021F0007C018B01040F111DEB0177FF02C0D0E0C1
:10220000C0E0C8010134110514F080E490E0C81763
:10221000D9075CF480E8E816F10428F441E0BE0137
:10222000C7010E94DC102196ECCFDF91CF911F9166
:102230000F91FF90EF9008958F929F92AF92BF926F
:10224000CF92DF92EF92FF920F931F93CF93DF9382
:102250006D3089F0C0907901D0907A016A30D1F464
:10226000109278011092770188E0C80ED11CD092AC
:102270007A01C092790181E090E0DF91CF911F91C6
:102280000F91FF90EF90DF90CF90BF90AF909F9015
:102290008F9008950091770110917801E5E06E9F8D
:1022A000E0011124C259DE4F5801F12CF5E0E12C78
:1022B000FF1629F0CE010196FE01E490EC01912C6D
:1022C000812CF0E8AF16B10458F4B601680D791D01
:1022D0006034710528F44E2D4170C5010E94DC1058
:1022E000E6948FEF881A980AE8E08E16910449F771
:1022F000F394FFEFAF1ABF0A86E0F812D7CF0A5F58
:102300001F4F1093780100937701B5CFCF93C82F5B
:102310000E94D410982F9C2381E09C1380E0CF91E1
:10232000089580E00C94430C982FE1EAF1E09111BC
:102330009FEF8FEF91939193919391938150D0F769
:102340000895CF92EF920F93CF93DF93EC018E819C
:102350006A3069F49D819C836985860F8E8381E054
:1023600090E0DF91CF910F91EF90CF9008956A3375
:1023700078F4603308F051C0613209F450C09FE333
:102380006E3291F098859D5F8C81890F8C83E7CFA9
:102390006134C0F36B3530F09FE9960F9A3190F7B6
:1023A00099EB01C09FEB960F61E0680F062E000CC1
:1023B000770BAC810A2E000CBB0BECEAF0E02DEAA7
:1023C00030E08F81813069F50491F901E4904EEAA3
:1023D00050E09923D1F041E050E08E2D877011F448
:1023E00050E040E02E2D269526952695240F352F7A
:1023F000311D029FF001039FF00D11249E9FA0014B
:102400009F9F500D112442555F4F9AEFC92E30E027
:1024100020E0CD010E94D50EB5CF94E0C4CF9EE35D
:10242000C3CF0491F901E4904EEA50E09923D1F032
:1024300041E050E08E2D877011F450E040E02E2DE9
:10244000269526952695240F352F311D029FF001E4
:10245000039FF00D11249E9FA0019F9F500D1124FA
:1024600042555F4F8BEFC82ED2CF089590E080E0A9
:102470000895FC0101900020E9F73197AF01481B56
:10248000590BBC018AEF95E00C94A80E1F920F9295
:102490000FB60F9211248F939F938091E10090913A
:1024A000E100937F9093E10083FF0FC01092E90059
:1024B00091E09093EB001092EC0092E39093ED008A
:1024C00010929E0198E09093F00082FF22C093E06A
:1024D0009093E9009091F200992319F09AE3909378
:1024E000E80090918F01992341F090918F019150D4
:1024F00090938F01911101C05D9A90919D01992354
:1025000041F090919D01915090939D01911101C0D6
:10251000289A84FF18C08091E2008E7E81608093AB
:10252000E2008091E1008F7E8093E1008091900134
:102530008E7E8061809390019F918F910F900FBE4E
:102540000F901F90189580FFF7CF8091E2008E7E4C
:1025500080618093E2008091E1008E7E8093E100B3
:10256000809190018E7E8160E5CF1F920F920FB611
:102570000F921124CF92DF92EF92FF920F931F934D
:102580002F933F934F935F936F937F938F939F937B
:10259000AF93BF93EF93FF93CF93DF93CDB7DEB7A6
:1025A0006C97DEBFCDBF1092E9008091E80083FFF9
:1025B00025C068E0CE0145960E94EC0D82EF809325
:1025C000E8008D8987FF39C09091E80090FFFCCF2B
:1025D000982F907609F034C19E894F89588D2F89A4
:1025E000F88C911131C0803861F580918E01809313
:1025F000F1001092F1008EEF8093E8006C960FB618
:10260000F894DEBF0FBECDBFDF91CF91FF91EF9168
:10261000BF91AF919F918F917F916F915F914F91FA
:102620003F912F911F910F91FF90EF90DF90CF90EE
:102630000F900FBE0F901F9018959EEF9093E8009B
:10264000C7CF1092F100D5CF913059F48111D3CF7B
:102650004130510581F680918E018D7F80938E01EE
:10266000CACF933049F48111C6CF4130510519F6D4
:1026700080918E018260F2CF953041F48091E80024
:1026800080FFFCCF20682093E300B5CF963009F09F
:10269000A9C00B8D1C8D22E01092E90010928C01D4
:1026A00010928B01F2122EC010928A0110928901B1
:1026B0000E94BB0D1F8299E09983FA8291E09E836C
:1026C00090EA98879AEF998720918B0130918C013D
:1026D000275F3F4F3C832B838D831092E90010923C
:1026E0008C0110928B0110938A010093890149E0BB
:1026F00050E0BE016F5F7F4F80E00E94950D0E9409
:10270000BB0D79CF10938A01009389010E94D20CEE
:10271000DC0112960D911C910115110509F451C1AE
:10272000D801ED91FC910480F581E02DBE016B5E36
:102730007F4FC8010995009709F03EC1F801008557
:102740001185EACFF3E0FF120EC08F89882309F4C8
:1027500040C0823061F440E867E088E298E10E947E
:102760003115811148CF81E28093EB0047CF813052
:1027700029F440E86BE08CE198E1F1CF833099F7E0
:102780000E94D20CDC011296ED90FC908E010F5F3E
:102790001F4F6801E114F10479F0D701ED91FC912C
:1027A0000680F781E02DB801C7010995080F111DBA
:1027B000F701E084F184EECFD8011C92F60101907C
:1027C0000020E9F73197BF016C197D0940E0C6018F
:1027D000C6CF66E078E1FB01449150E080E80E94BA
:1027E000950D09CF973009F4BECF983021F481E0E0
:1027F0008093F10000CF993009F0FDCE837009F08D
:10280000B2CFEEE2F1E081E031E096E321912223C4
:1028100071F08093E9003093EB00DF0111972C9168
:102820002093EC009093ED008F5F873079F78EE76F
:102830008093EA001092EA008F8980939E01DBCE9C
:102840008B8D9C8D1092E90010928C0110928B015F
:1028500090938A0180938901898D811192C08E891C
:102860009D89913A49F4813209F07DCF47E050E0EB
:1028700064E071E080E0B3CF913209F074CF83322D
:1028800069F48F89988DB0E0A0E080930001909367
:102890000101A0930201B0930301ADCE803269F42F
:1028A0008091E80082FFFCCF67E084E091E00E9425
:1028B000EC0D8BEF8093E8009ECE823209F09BCE28
:1028C0008F8980930B01EEEFFFE7859194918B3F09
:1028D0009C4D51F1E0E0F8E08091040190910501F8
:1028E000A0910601B0910701803B9440A105B1057C
:1028F000F1F480910B0180FD1AC0EE3F8AE0F807E9
:1029000089F587E797E791838083809160008093C2
:102910008D0188E19BE00FB6F894A8958093600044
:102920000FBE9093600067CEEEEFFAE0D5CF8081C6
:1029300091818737974709F05ECEA8958091600016
:1029400088618093600080918D0180936000EE3FEC
:102950002AE0F20789F08091FE0A9091FF0A9183A4
:10296000808349CE808191818737980751F2909377
:10297000FF0A8093FE0AC5CF1092FF0A1092FE0A4A
:102980003ACE0E94D20CDC0112960D911C910115D9
:10299000110509F4E8CED801ED91FC910190F08188
:1029A000E02DBE016B5E7F4FC8010995811123CEDA
:1029B000F80100851185EBCF181619060CF41BCE13
:1029C000D2CEF1E0FF12BECE6AE078E104CF0F92E2
:1029D0000FB68F939F93EF93FF93809180018D5F4C
:1029E0008D3708F08D5780938001E1E8F1E0808118
:1029F0008E4F808391819F4F918382818F4F8283FD
:102A000083818F4F8383E5E8F1E080818F5F80834E
:102A100081818F4F818382818F4F828383818F4F0A
:102A200083838FB18F6066991C9B88278F3681F4D2
:102A300080917F01981B963068F0E0E0F8E087E72E
:102A40008083818388E180936000F0936000FFCFF2
:102A500090937F01FF91EF919F918F910FBE0F9007
:102A60001895EF92FF920F931F93CF93DF93F82E59
:102A7000192FE62E042F81E0860F880F0E94670D24
:102A800083E00E94670DCF2DD12FEC0EFD2EF11C9F
:102A9000CE15DF05B9F007FF13C0FE0184910E9437
:102AA000670D182F80E00E94670D81232196811108
:102AB000EFCFDF91CF911F910F91FF90EF9008958D
:102AC0008881EDCF81E0F5CF1092A4051092A30587
:102AD00088EE93E0A0E0B0E08093A5059093A60572
:102AE000A093A705B093A80588E391E09093A20571
:102AF0008093A1058FEF9FEF9093AE058093AD0576
:102B00001092F9051092F80586E591E09093F7058B
:102B10008093F6051092FD051092FC058AE491E081
:102B20009093FB058093FA0588E08093030691E07B
:102B3000909302061092FF05109200061092FE0577
:102B40009093010610920506109204061092060654
:102B5000809317068CE08093180680E090E0A0E751
:102B6000B2E48093070690930806A0930906B093F9
:102B70000A0680E090E0A0EDB1E480930B0690930C
:102B80000C06A0930D06B0930E0680911001909153
:102B90001101A0911201B091130180931906909335
:102BA0001A06A0931B06B0931C06EDE1F6E098E030
:102BB0008CE0908B818B108211821282138214829E
:102BC000158216821782759626E0E137F20789F79B
:102BD0000895CDB7DEB7A997DEBFCDBF789483E067
:102BE00084BD83E085BD81E080936E00E1E8F0E084
:102BF00083E08083E0E881E08083E1E983E0808313
:102C0000E0E981E08083E1EC87E08083E3EC81E030
:102C10008083E0EC82E08083E2EC81E08083EAE77D
:102C200087E080838068808310929E0110928E01DD
:102C3000109290018091D70081608093D70080EA44
:102C40008093D80089B5806189BD89B5826089BDCE
:102C500009B400FEFDCF81E090E00E94F90D809163
:102C6000D8008F7C80618093D8008091E000807FC5
:102C70008093E0008091E1008E7E8093E1008DE002
:102C80008093E200559A209A81EC80937C0081EF3A
:102C900085B987EE84B982E38BB982EF8AB9769AD7
:102CA0006E9880EF81BB10BA80E58CBD81E08DBD50
:102CB00085E00E94D1105F9A85E00E94D1105C9857
:102CC000EEE1F7E085918EBD00000DB407FEFDCF6B
:102CD000EB32C1F75C9A81E88093640081E08093D5
:102CE00065000E94911180E80E9486118823A9F056
:102CF0005C9885EA8EBD00000DB407FEFDCF5C9A9E
:102D00002E982F982D9880916400806280936400A3
:102D100081E083BF889513BEFCCF84E00E948611BA
:102D20008823B9F12D9884E80E9486118823A1F0A8
:102D30002D9A88EC0E94D1102F986FEF82E090E0DE
:102D40000E94CC1D84EF91E00E94F90D2F9A84E837
:102D50000E9486118111FBCF84E10E948611882395
:102D6000A1F02D9A88EC0E94D1102E9860E082E0AC
:102D700090E00E94CC1D84EF91E00E94F90D2E9A04
:102D800084E10E9486118111FBCF88EC0E94D11052
:102D9000C4CF2D9A82E090E00E94C41D882309F4DC
:102DA00064C03E9A3F9A81E090E00E94C41D082FC3
:102DB0000470F02E81FF0CC001112E9801EF1FEF5F
:102DC00080E40E948611882309F452C02E9A2F9A1B
:102DD00082E30E94D1100E94D4108111F9CF80911A
:102DE00064008E7F8093640080917A008064809379
:102DF0007A0080917A0086FDFCCF009178001091D6
:102E000079000E94900EAB01BC01C801B0E0A0E0C7
:102E1000DC01992788278C019D01040F151F261FAF
:102E2000371FC901B801209164002160209364001C
:102E3000611571058105910511F00E94BB1D10926D
:102E400006068BE297E09093050680930406809136
:102E50007D01882309F4A8C010927D0180E090E0F4
:102E6000892BA9F30E940000F2CF3E983F989BCF98
:102E7000FF2029F00430110511F42E9A2F9881E0DB
:102E80000E94430C202F2770E22EA80133E05595B5
:102E900047953A95E1F7CA019695982F8827979517
:102EA00087958F559E4F70E060E04E3F3FEF530790
:102EB00069F130E020E0DB01A259B94F6C01E0E894
:102EC000CE0ED11CFD01E20FF31FE491F0E03F01B3
:102ED0000E2C02C0660C771C0A94E2F74F3F540791
:102EE00039F05C01A20EB31EF50194889628948AED
:102EF000EE2039F05601A20EB31EF50194889728F2
:102F0000948A2F5F3F4F28353105E1F64F5F5F4FC1
:102F100080589F4F685A7F4F603B710531F60E9481
:102F200091118FE00E94D1100F5F1F4F09311105E1
:102F300009F046CFFF2011F02F9A2D9880E991E0FB
:102F40000E94F90D2D9A81E090E00E94C41D80FF3F
:102F50003FCF8AE090E00E94C41D9FEF980F9E3FF4
:102F600008F036CF22E330E03093780120937701E8
:102F700028E330E030937A01209379010BE010E0F0
:102F8000682F86EF95E00E941C11C8010E94C41DA5
:102F90000F5F1F4F0131110599F70E94911188EEC3
:102FA00093E00E94F90D14CF8091810190917E01F0
:102FB000182F191B103140F41F3009F44FCF81E056
:102FC00083BF889513BE4ACF91E090937D01809393
:102FD0007E01EBE7F1E0808191810196808391830E
:102FE00080919F018093A0010E94D41080939F0143
:102FF00080E00E94941110927A011092790110924F
:10300000780110927701E091F505E730E8F4F0E0FF
:10301000E45FF74E0C942620131827182C1831184B
:1030200059185E18911880917B0190917C0164EB96
:1030300070E00E941220892B19F481E08093F5053D
:1030400082EC93E10E94B9100E94911107CF0E9477
:10305000890C80EC9FE0F6CF0E94890C8EEB9BE000
:10306000F1CF80917B0190917C0165E070E00E943E
:103070001220892B19F481E00E94941180917B0128
:1030800090917C016AE070E00E941220892B19F473
:1030900080E00E94941180917B0190917C0168E70F
:1030A00070E00E941220892B79F684E08093F50568
:1030B000CBCF0E94890C8CEB97E0C4CF80917B0131
:1030C00090917C0165E070E00E941220892B71F4E0
:1030D00080910606E0910406F0910506E80FF11DC7
:1030E000E491EE2319F08F5F8093060610E0E091E3
:1030F000060660910406709105061E1750F4610FD4
:10310000711DFB01649186EF95E00E941C111F5F09
:10311000EECFE60FF72FF11DE491E11195CF86E098
:10312000C5CF80E80E9486118823B1F02DEC3CECDD
:103130004CE45EE3609113067091140680911506CD
:10314000909116060E94411E609313067093140618
:10315000809315069093160680E10E9486118823BD
:10316000B1F02DEC3CEC4CE45EE360911306709101
:10317000140680911506909116060E94421E6093D7
:10318000130670931406809315069093160680E23A
:103190000E9486118823B1F02DEC3CEC4CE45EE3F8
:1031A00060910F06709110068091110690911206A1
:1031B0000E94411E60930F067093100680931106C3
:1031C0009093120680E40E9486118823B1F02DECC2
:1031D0003CEC4CE45EE360910F0670911006809128
:1031E0001106909112060E94421E60930F06709382
:1031F0001006809311069093120620E030E0A9019A
:1032000060910B0670910C0680910D0690910E0650
:103210000E94AE1E87FF08C010920B0610920C068B
:1032200010920D0610920E068091180660E470E070
:10323000681B7109072E000C880B990B0E945D1FFB
:103240006B017C01AC019B0160910B0670910C0637
:1032500080910D0690910E060E940D20181644F4E0
:10326000C0920B06D0920C06E0920D06F0920E066C
:1032700020E030E0A9016091070670910806809176
:10328000090690910A060E94AE1E87FF08C01092A0
:103290000706109208061092090610920A068091FD
:1032A000170660E870E0681B7109072E000C880B98
:1032B000990B0E945D1F6B017C01AC019B01609129
:1032C0000706709108068091090690910A060E94EF
:1032D0000D20181644F4C0920706D0920806E0921A
:1032E0000906F0920A062AE939E949E95FE36091A3
:1032F0000F067091100680911106909112060E949F
:10330000B31E4B015C0180920F0690921006A092B2
:103310001106B09212062AE939E949E95FE36091A2
:1033200013067091140680911506909116060E945E
:10333000B31E6B017C01C0921306D0921406E0927A
:103340001506F0921606A50194016091070670918A
:1033500008068091090690910A060E94421E609319
:103360000706709308068093090690930A06A70142
:10337000960160910B0670910C0680910D0690915C
:103380000E060E94421E60930B0670930C068093FB
:103390000D0690930E060DE116E01BA30AA318017B
:1033A0001DA21CA28090070690900806A090090616
:1033B000B0900A0680910B0690910C06A0910D0624
:1033C000B0910E068EA39FA3A8A7B9A7D1015396CB
:1033D0008C915397811140C0ECA1FDA1EF50FA4FA1
:1033E00010A554961C920E946C1D29E730E040E025
:1033F00050E00E94DE1D645C7F4F8F4F9F4F0E9404
:103400005D1F0E942C1F70E080917B0190917C01D8
:103410000E941220892B01F50E946C1D22E030E0F1
:1034200040E050E00E94DE1DF101628B662309F44A
:10343000B2C1613009F4B8C1612F70E090E080E062
:103440000E945B1FD10114966D937D938D939C9385
:103450001797E1E05396EC93D10152968C91882313
:1034600009F4B3C1813009F4C3C1F101C080D18036
:10347000E280F380008910E0B80160587F4F072E8A
:10348000000C880B990B0E945D1F9B01AC01C701CA
:10349000B6010E940D2087FD03C0D10153961C92F6
:1034A000F0E0E0E0E01BF10B8F01BF01660F771F3A
:1034B000072E000C880B990B0E945D1F9B01AC012D
:1034C000C701B6010E94AE1E18161CF0D10153961A
:1034D0001C92F1018489882309F4ACC0B801110F52
:1034E000880B990B0E945D1F9B01AC01C701B601BF
:1034F0000E94AE1ED10114964D905D906D907C900F
:103500001797181644F520E030E040E053E4C70177
:10351000B6010E940D2087FF1EC0F101618970E095
:10352000719561957109072E000C880B990B0E940B
:103530005D1F9B01AC01C301B2010E94AE1E1816B3
:1035400054F420E030E040E852E4C301B2010E94AC
:103550000D2087FD03C0D10153961C92A501940153
:10356000C701B6010E940D20181694F42AE037ED29
:1035700043EA5DE3F10160857185828593850E9450
:10358000421ED10118966D937D938D939C931B974A
:10359000A5019401C701B6010E94AE1E87FF12C0AB
:1035A0002AE037ED43EA5DE3F101608571858285AC
:1035B00093850E94411ED10118966D937D938D9342
:1035C0009C931B972EA13FA148A559A5C301B20109
:1035D0000E940D20181694F42AE037ED43EA5DE3CB
:1035E000F10164857585868597850E94421ED1010B
:1035F0001C966D937D938D939C931F972EA13FA155
:1036000048A559A5C301B2010E94AE1E87FF12C092
:103610002AE037ED43EA5DE3F1016485758586852F
:1036200097850E94411ED1011C966D937D938D93C9
:103630009C931F972AE939E949E95FE3F101608525
:103640007185828593850E94B31E2B013C01D101B7
:1036500018964D925D926D927C921B972AE939E9FA
:1036600049E95FE31C966D917D918D919C911F9727
:103670000E94B31E4B015C01F10184869586A686EB
:10368000B786A3019201C701B6010E94421ED10173
:103690006D937D938D939C931397A501940114963C
:1036A0006D917D918D919C9117970E94421EF10121
:1036B00064837583868397830CA11DA10F5F1F4FC1
:1036C0001DA30CA315E1210E311C0CA11DA104307A
:1036D000110509F067CE1092FF051092FE051092B9
:1036E00000068EE591E00E9439126091F10570911B
:1036F000F2058091F3059091F4050E942C1F9B0127
:1037000050E040E019A28E010F5D1F4FCA01B901C0
:103710002AE030E040E050E00E94101E605DD801D9
:103720006E938D01211531054105510579F71097EB
:1037300069F0FD0101900020E9F73197AF014A1BC4
:103740005B0BBD018AEF95E00E94A80EBB24B394E9
:10375000EAA1FBA1A188C0886481758186819781D7
:103760000E94251F7B01AAA1BBA16D917D918D9126
:103770009C910E94251F8B01C60ED72ED11C0C15C3
:103780001D050CF041C04A2DB701C8010E94F2107E
:103790000F5F1F4FF4CF80E090E0A0E0B3E48083A0
:1037A0009183A283B38348CE608970E0719561955F
:1037B0007109072E000C880B990B0E945D1FF10107
:1037C000608371838283938337CE2AE037ED43EAA7
:1037D0005DE3F10160857185828593850E94411EBC
:1037E000D10118966D937D938D939C931B973DCE3D
:1037F0002AE037ED43EA5DE3F1016085718582855A
:1038000093850E94421EECCFEAA1FBA1408051802B
:1038100062807380C0900706D0900806E090090689
:10382000F0900A0620E030E040E051E4C701B60124
:103830000E94421E9B01AC01C301B2010E94AE1E58
:1038400018160CF4B4C020E030E040E051E4C301AD
:10385000B2010E94421E9B01AC01C701B6010E9449
:10386000AE1E18160CF4A3C0AAA1BBA114964D90CD
:103870005D906D907C901797C0900B06D0900C06D1
:10388000E0900D06F0900E0620E030E040E451E4B8
:10389000C701B6010E94421E9B01AC01C301B201E7
:1038A0000E94AE1E18160CF482C020E030E040E406
:1038B00051E4C301B2010E94421E9B01AC01C70149
:1038C000B6010E94AE1E18160CF471C088E00E946A
:1038D0008611882309F46BC020E030E040E051E419
:1038E00060910B0670910C0680910D0690910E066A
:1038F0000E94411E0E94251F162F20E030E040EC60
:1039000051E4609107067091080680910906909134
:103910000A060E94411E0E94251F6093FF056093C6
:10392000FE05109300068BE191E00E94391220E021
:1039300030E040E051E4EAA1FBA164817581868119
:1039400097810E94411E0E94251F162F20E030E023
:1039500040E051E4AAA1BBA16D917D918D919C9114
:103960000E94411E0E94251F6093FF056093FE0583
:103970001093000684E191E00E943912EAA1FBA1B4
:10398000B48A23E333E343EB5EE36091F105709186
:10399000F2058091F3059091F4050E94421E609318
:1039A000F1057093F2058093F3059093F4050AA155
:1039B0001BA10B5E1F4F1BA30AA30157164009F062
:1039C000C7CE609018067090170660910B06709134
:1039D0000C0680910D0690910E060E94251F6B012A
:1039E0008B016091070670910806809109069091FD
:1039F0000A060E94251F4B010034110528F4472DAB
:103A0000B601C4010E94520C662D70E06C0D7D1D44
:103A1000615071096034710520F4472DC4010E9482
:103A2000520C462DB601C4010E94F210872D90E081
:103A3000880D991D462DB60101970E94F21004CB06
:103A40008F929F92AF92BF92CF92DF92EF92FF92AE
:103A5000CF93DF93EC01688179818A819B81611525
:103A600071058105910521F464E279ED8BE597E01C
:103A70002DE133EF41E050E00E94DE1D49015A0183
:103A80009B01AC01A7EAB1E40E94FD1D6B017C0122
:103A9000ACEEB4EFA50194010E940B1EC60ED71E1A
:103AA000E81EF91EF7FE06C081E0C81AD108E10839
:103AB00080E8F80AC882D982EA82FB82C701B6018F
:103AC0009F77DF91CF91FF90EF90DF90CF90BF90E5
:103AD000AF909F908F9008958F929F92AF92BF92D8
:103AE000CF92DF92EF92FF9260910C0170910D01E5
:103AF00080910E0190910F0161157105810591056D
:103B000021F464E279ED8BE597E02DE133EF41E0BC
:103B100050E00E94DE1D49015A019B01AC01A7EA59
:103B2000B1E40E94FD1D6B017C01ACEEB4EFA50178
:103B300094010E940B1EC60ED71EE81EF91EF7FE4A
:103B400006C081E0C81AD108E10880E8F80AC092EE
:103B50000C01D0920D01E0920E01F0920F01C7010D
:103B6000B6019F77FF90EF90DF90CF90BF90AF901E
:103B70009F908F90089560930C0170930D01809336
:103B80000E0190930F010895F999FECF92BD81BD6A
:103B9000F89A992780B50895262FF999FECF92BDFE
:103BA00081BDF89A019700B4021639F01FBA20BD02
:103BB0000FB6F894FA9AF99A0FBE0895052E97FB5E
:103BC0001EF400940E94F51D57FD07D00E94101EA0
:103BD00007FC03D04EF40C94F51D5095409530959C
:103BE00021953F4F4F4F5F4F089590958095709569
:103BF00061957F4F8F4F9F4F08950E94321EA59F62
:103C0000900DB49F900DA49F800D911D11240895D7
:103C1000B7FF0C94FD1D0E94FD1D821B930B0895A0
:103C2000A1E21A2EAA1BBB1BFD010DC0AA1FBB1FC0
:103C3000EE1FFF1FA217B307E407F50720F0A21B32
:103C4000B30BE40BF50B661F771F881F991F1A949F
:103C500069F760957095809590959B01AC01BD01C9
:103C6000CF010895A29FB001B39FC001A39F700D23
:103C7000811D1124911DB29F700D811D1124911D74
:103C800008955058BB27AA270E94591E0C94D31F91
:103C90000E94C51F38F00E94CC1F20F039F49F3FCE
:103CA00019F426F40C94C21F0EF4E095E7FB0C9473
:103CB000BC1FE92F0E94E41F58F3BA17620773076D
:103CC0008407950720F079F4A6F50C9406200EF4ED
:103CD000E0950B2EBA2FA02D0B01B90190010C011C
:103CE000CA01A0011124FF27591B99F0593F50F434
:103CF000503E68F11A16F040A22F232F342F44278C
:103D0000585FF3CF469537952795A795F040539583
:103D1000C9F77EF41F16BA0B620B730B840BBAF053
:103D20009150A1F0FF0FBB1F661F771F881FC2F7BE
:103D30000EC0BA0F621F731F841F48F487957795D2
:103D40006795B795F7959E3F08F0B0CF9395880F8C
:103D500008F09927EE0F9795879508950E94981F70
:103D600008F481E008950E94C71E0C94D31F0E949E
:103D7000CC1F58F00E94C51F40F029F45F3F29F086
:103D80000C94BC1F51110C9407200C94C21F0E946C
:103D9000E41F68F39923B1F3552391F3951B550B59
:103DA000BB27AA2762177307840738F09F5F5F4F0E
:103DB000220F331F441FAA1FA9F335D00E2E3AF04D
:103DC000E0E832D091505040E695001CCAF72BD065
:103DD000FE2F29D0660F771F881FBB1F26173707B6
:103DE0004807AB07B0E809F0BB0B802DBF01FF27E8
:103DF00093585F4F3AF09E3F510578F00C94BC1FEA
:103E00000C9407205F3FE4F3983ED4F386957795B2
:103E10006795B795F7959F5FC9F7880F911D9695A0
:103E2000879597F90895E1E0660F771F881FBB1FFC
:103E3000621773078407BA0720F0621B730B840BA9
:103E4000BA0BEE1F88F7E09508950E942C1F689426
:103E5000B1110C94072008950E94EC1F88F09F5721
:103E600098F0B92F9927B751B0F0E1F0660F771F9E
:103E7000881F991F1AF0BA95C9F714C0B13091F094
:103E80000E940620B1E008950C940620672F782F39
:103E90008827B85F39F0B93FCCF386957795679559
:103EA000B395D9F73EF490958095709561957F4FC5
:103EB0008F4F9F4F0895E89409C097FB3EF490956B
:103EC0008095709561957F4F8F4F9F4F9923A9F0F3
:103ED000F92F96E9BB279395F69587957795679582
:103EE000B795F111F8CFFAF4BB0F11F460FF1BC0C6
:103EF0006F5F7F4F8F4F9F4F16C0882311F096E959
:103F000011C0772321F09EE8872F762F05C0662306
:103F100071F096E8862F70E060E02AF09A95660FBF
:103F2000771F881FDAF7880F9695879597F9089578
:103F3000990F0008550FAA0BE0E8FEEF16161706BA
:103F4000E807F907C0F012161306E407F50798F022
:103F5000621B730B840B950B39F40A2661F0232B3B
:103F6000242B252B21F408950A2609F4A140A695B7
:103F70008FEF811D811D089597F99F6780E870E09C
:103F800060E008959FEF80EC089500240A941616CF
:103F9000170618060906089500240A941216130637
:103FA000140605060895092E0394000C11F48823C5
:103FB00052F0BB0F40F4BF2B11F460FF04C06F5FE1
:103FC0007F4F8F4F9F4F089557FD9058440F551FB7
:103FD00059F05F3F71F04795880F97FB991F61F08B
:103FE0009F3F79F087950895121613061406551F02
:103FF000F2CF4695F1DF08C0161617061806991F6E
:10400000F1CF86957105610508940895E894BB2762
:1040100066277727CB0197F908950E94981F08F427
:104020008FEF0895AA1BBB1B51E107C0AA1FBB1F3E
:10403000A617B70710F0A61BB70B881F991F5A9534
:10404000A9F780959095BC01CD010895EE0FFF1F53
:0C4050000590F491E02D0994F894FFCF46
:10405C00FFFFFFFF00E10000000000000100000076
:10406C000716253457656972646F004920757365AE
:10407C002041726475626F79204254570000C180F0
:10408C008100000000000000E60C0D0E070DFC0C7A
:10409C004D0D0B0D290D00000000A111A80E3612BC
:1040AC003512000000001C11A80E3612351257658F
:0C40BC006972646F204C6576656C200012
:00000001FF
