:020000040000FA
:100000000C94190C0C94410C0C94410C0C94410C64
:100010000C94410C0C94410C0C94410C0C94410C2C
:100020000C94410C0C94410C0C948D120C94FC1209
:100030000C94410C0C94410C0C94410C0C94410C0C
:100040000C94410C0C94410C0C94410C0C94410CFC
:100050000C94410C0C94410C0C94410C0C942E15F6
:100060000C94410C0C94410C0C94410C0C94410CDC
:100070000C94410C0C94410C0C94410C0C94410CCC
:100080000C94410C0C94410C0C94410C0C94410CBC
:100090000C94410C0C94410C0C94410C0C94410CAC
:1000A0000C94410C0C94410C0C94410C03081F055A
:1000B0001F1F151B1F11111F110E1F15111F0501E9
:1000C0001F111D1F041F001F0010101F1F041B1FE6
:1000D00010101F061F1F011F1F111F1F05071F31B3
:1000E0001F1F051B17151D011F011F101F0F100FCC
:1000F0001F0C1F1B041B071C071915130C121E1FB6
:10010000120C1E12120C121F0C1A14041F052E2A98
:100110001E1F021C001D00201D001F041A011F00CD
:100120001E041E1E021E1E121E3E120C0C123E1E2D
:10013000020614120A020F121E101E0E100E1E08C6
:100140001E1A041A2E281E1A12161F111F001F0035
:100150001D151711151F07041F17151D1F151D014C
:10016000011F1F151F17151F0017000010000000AA
:100170000000003E5B4F5B3E3E6B4F6B3E1C3E7C87
:100180003E1C183C7E3C181C577D571C1C5E7F5E35
:100190001C00183C1800FFE7C3E7FF0018241800F4
:1001A000FFE7DBE7FF30483A060E2629792926408B
:1001B0007F050507407F05253F5A3CE73C5A7F3EB7
:1001C0001C1C08081C1C3E7F14227F22145F5F0049
:1001D0005F5F06097F017F006689956A60606060E5
:1001E0006094A2FFA29408047E040810207E2010D0
:1001F00008082A1C08081C2A08081E101010100CD9
:100200001E0C1E0C30383E3830060E3E0E06000026
:1002100000000000005F00000007000700147F14CA
:100220007F14242A7F2A1223130864623649562039
:10023000500008070300001C2241000041221C005E
:100240002A1C7F1C2A08083E08080080703000081D
:1002500008080808000060600020100804023E51F1
:1002600049453E00427F4000724949494621414983
:100270004D331814127F1027454545393C4A4949EA
:100280003141211109073649494936464949291E54
:100290000000140000004034000000081422411443
:1002A00014141414004122140802015909063E4195
:1002B0005D594E7C1211127C7F494949363E4141BD
:1002C00041227F4141413E7F494949417F09090916
:1002D000013E414151737F0808087F00417F410082
:1002E0002040413F017F081422417F404040407F31
:1002F000021C027F7F0408107F3E4141413E7F097E
:100300000909063E4151215E7F09192946264949BE
:10031000493203017F01033F4040403F1F204020FE
:100320001F3F4038403F63140814630304780403FC
:100330006159494D43007F414141020408102000AA
:100340004141417F0402010204404040404000031B
:1003500007080020545478407F28444438384444E7
:100360004428384444287F385454541800087E09DF
:100370000218A4A49C787F0804047800447D4000FF
:100380002040403D007F1028440000417F40007C19
:10039000047804787C080404783844444438FC1811
:1003A00024241818242418FC7C08040408485454F5
:1003B000542404043F44243C4040207C1C20402022
:1003C0001C3C4030403C44281028444C9090907C89
:1003D0004464544C4400083641000000770000009B
:1003E0004136080002010204023C2623263C1EA1DD
:1003F000A161123A4040207A38545455592155553C
:1004000079412154547841215554784020545579EC
:10041000400C1E527212395555555939545454597D
:1004200039555454580000457C410002457D420036
:1004300001457C40F0292429F0F0282528F07C543F
:100440005545002054547C547C0A097F493249495F
:1004500049323248484832324A4848303A414121CC
:100460007A3A42402078009DA0A07D394444443926
:100470003D4040403D3C24FF2424487E4943662BB8
:100480002FFC2F2BFF0929F620C0887E090320545A
:100490005479410000447D413048484A3238404058
:1004A000227A007A0A0A727D0D19317D2629292FB8
:1004B00028262929292630484D40203808080808D0
:1004C00008080808382F10C8ACBA2F102834FA00D2
:1004D000007B000008142A142222142A1408950014
:1004E000220095AA005500AAAA55AA55AA00000004
:1004F000FF00101010FF00141414FF001010FF0074
:10050000FF1010F010F0141414FC001414F700FF86
:100510000000FF00FF1414F404FC141417101F1043
:10052000101F101F1414141F00101010F0000000F2
:10053000001F101010101F10101010F010000000FD
:10054000FF101010101010101010FF10000000FF0E
:10055000140000FF00FF00001F10170000FC04F44F
:1005600014141710171414F404F40000FF00F71407
:10057000141414141414F700F7141414171410108E
:100580001F101F141414F4141010F010F000001FAA
:10059000101F0000001F14000000FC140000F010E9
:1005A000F01010FF10FF141414FF141010101F008F
:1005B000000000F010FFFFFFFFFFF0F0F0F0F0FF91
:1005C000FFFF0000000000FFFF0F0F0F0F0F384468
:1005D0004438447C2A2A3E147E02020606027E0229
:1005E0007E0263554941633844443C04407E201EEA
:1005F0002006027E020299A5E7A5991C2A492A1C19
:100600004C7201724C304A4D4D303048784830BC05
:10061000625A463D3E494949007E0101017E2A2A2F
:100620002A2A2A44445F444440514A444040444AB0
:1006300051400000FF0103E080FF000008086B6BE1
:10064000083612362436060F090F06000018180067
:1006500000001010003040FF0101001F01011E00CA
:10066000191D1712003C3C3C3C0000000000F0F853
:100670009C8E8783878E9CF8F00000FEFF030303A7
:100680000303070EFCF80000FEFF03030303030748
:100690000EFCF80000FFFF00000000000000FFFF5C
:1006A0000000FEFF8383838383C7EE7C380000F85D
:1006B000FC0E07030303070EFCF800003F7FE0C0B9
:1006C0008080C0E07F3FFFFF01010101010101FFC8
:1006D000FF0000FFFF0C0C0C0C1C3E77E3C1000078
:1006E0007FFFC0C0C0C0C0E0703F1F00001F3F7050
:1006F000E0C0C0C0E0703F1F00007FFFC1C1C1C1AA
:10070000C1E3773E1C00001F3F70E0C0C0C0E07036
:100710003F1F000000000001FFFF01000000D5F0B6
:100720008D14A1C881CFD9F1AF20004166746572E4
:10073000207965617273206F660A696E7374616CEB
:100740006C696E6720616E640A636F6E66696775B7
:1007500072696E672C20796F75206172650A6E6F01
:10076000772072656164792E20476F20616E640A7C
:1007700074656C6C2074686520776F726C6420748B
:100780006861740A746865792063616E6E6F740ABB
:10079000636F6D70726568656E6420796F75720A3B
:1007A000756C74696D61746520706F7765722E2049
:1007B000202020202020202020202000804000FE1B
:1007C00002020242428282020202020202C2424249
:1007D0004282028242424282028242424282028239
:1007E000C2A2A2220282424242820242E242420269
:1007F00002824242424202E2424242820202020239
:1008000002020202020202020202020202020202C8
:10081000020202C2F2020202020202020202020208
:1008200002020202020202020202020202020202A8
:10083000020202020202020202020202FE0000FFA3
:100840000000000404020201000000000007000094
:10085000000700030505050100030404040300006C
:10086000070000000003050505010000030404045F
:100870000003040404040007000000070000000057
:1008800000000000000000000000000000000080E8
:10089000E0F8FFFFFFFFFCE0C000000000000000E8
:1008A0000000000000000000000000000000000048
:1008B000000000000000000000000000FF0000FF3A
:1008C000000000FC44444438003854545418007C60
:1008D00008040404007E20102844002400000000C6
:1008E000007E44444438007C08040404002054542E
:1008F00054780038444444FC00000000000000002C
:10090000000000000000000000000080C0F0FEFFBA
:10091000FFFFFFFFFFFFFFFFFFFCF0E08000000094
:1009200000000000000000000000000000000000C7
:10093000000000000000000000000000FF0000FFB9
:1009400000000080404040400080404040800080E7
:100950004040408000E00000400000000000A00097
:10096000C0404040800080C0A0A0200000000000E7
:100970000000000001010100000000000000000074
:100980000000000000000000C0F0FCFFFFFFFFFFC0
:10099000FFFFFFFFFFFFFFFFFFFFFFFFFFFEF0E096
:1009A00080000000000000000000000000000000C7
:1009B000000000000000000000000000FF0000FF39
:1009C00000000003040404040003040404030003FF
:1009D00004040403000304000200000000000700F8
:1009E00007000000070000070000000000000000F2
:1009F00000000000000000000000000000000000F7
:100A000000000000C0E0FCFEFFFFFFFFFFFFFF1F34
:100A100007030301010101010103071FFFFFFFFF9E
:100A2000FFFFFCF8E0800000000000000000000074
:100A3000000000000000000000000000FF0000FFB8
:100A400000002054545478007C0804040400384406
:100A5000444444007E0404047800240000000000A4
:100A60002054545478000C3040300C007C080404AE
:100A7000040000000000000000000000000000C0B2
:100A8000E0F8FCFFFFFFFFFFFFFFFFFFFF7F3F18C6
:100A90000000000000000000003070FCFFFFFFFFBE
:100AA000FFFFFFFFFFFFFFFCF8F0800000000000E9
:100AB000000000000000000000000000FF0000FF38
:100AC00000000040408080000000000000C0A0A0A6
:100AD000A0C000000000000000E0A0A0A0200000D6
:100AE0000000000000000000000000000000000006
:100AF000000000000000000080C0E0F0F8FCFFFFF4
:100B0000FFFFFF7F3F3F1F1F0F070703000000008D
:100B10000000000000000000000000000003070FBC
:100B20000F1F1F3F3F7F7F7FFFFFFFFFFCF8F0C0DD
:100B3000808000000000000000000000FF00007F37
:100B40004040404444424241404040404047404091
:100B50004047404444444444404740404040404073
:100B60004040404040404040404040404040404085
:100B70004040404040444647474743434343414148
:100B80004040404040404040404040404040404065
:100B90004040404040404040404040404040404055
:100BA000404040404040404040404141414141413F
:100BB0004141414040404040404040407F008040F3
:100BC0000000000000000000000000000000000025
:100BD0000000000000000000000000000000000015
:100BE0000000000000000000000000000000000005
:100BF00000000000000000000000000000000000F5
:100C000000000000000000000000000000000000E4
:100C100000000000000000000000000000000000D4
:100C200000000000000000000000000000000000C4
:100C300000000000000000000000000000000000B4
:100C400000000000000000000000000000000000A4
:100C5000000000000000000000000000E080808034
:100C6000E000004040408000C0000000C000804024
:100C70004040800000000000C0000000C000804034
:100C800040408000C0000000C00000000000804024
:100C900040408000C0000000C00080404040800014
:100CA000C080404040000000000000000000000044
:100CB0000000000000000000000000000000000034
:100CC0000000000000000000000000000000000024
:100CD000000000000000000000000000070000000D
:100CE00007000205050507000003040300000305D3
:100CF0000505010000000000030404040F000304C4
:100D000004040300030404040700000000000305BA
:100D100005050100000304030000030505050100AB
:100D200007000000000000000000000000000000BC
:100D300000000000000000000000000000000000B3
:100D400000000000000000000000000000000000A3
:100D50000000000000000000000000000000FC088F
:100D60000808F00070A8A8A8300040A8A8A8F000C3
:100D7000F8100808080070888888FC00000000004F
:100D800070888888700010F81414040000000000B7
:100D9000087C88888000FC080808F00070A8A8A8D3
:100DA0003000000000000000000000000000000013
:100DB0000000000000000000000000000000000033
:100DC0000000000000000000000000000000000023
:100DD0000000000000000080808000000000000093
:100DE0000000000000008000000000000000800003
:100DF00000000000000000000000000000000000F3
:100E000000000000000000008000800000000000E2
:100E10000000008000000000000000000000000052
:100E200000000000808080800000000000000000C2
:100E300000000000000000000000000000000000B2
:100E400000000000000000000000000000000000A2
:100E50000000000000001F0202021F001F0201012B
:100E600001000E1111111F000F1010101F001F1193
:100E700011110E000E1111110E000F5050503F00B5
:100E8000000000000E1111111F001E001215151593
:100E90000800010F111110001F02010101000E11C5
:100EA00011110E00000014020100000000000000FB
:100EB0000000000000000000000000000000000032
:100EC0000000000000000000000000000000000022
:100ED0000000000000000000000000000000000012
:100EE0000000000000000000000000000000000002
:100EF00000000000000000000000000000000000F2
:100F000000000000000000000000000000000000E1
:100F100000000000000000000000000000000000D1
:100F200000000000000000000000000000000000C1
:100F300000000000000000000000000000000000B1
:100F400000000000000000000000000000000000A1
:100F50000000000000000000000000000000000091
:100F60000000000000000000000000000000000081
:100F70000000000000000000000000000000000071
:100F80000000000000000000000000000000000061
:100F90000000000000000000000000000000000051
:100FA0000000000000000000000000000000000041
:100FB0000000000000000000000000000000000031
:100FC0008040000088949494640070888888700041
:100FD00080008000800000000000087C888880007D
:100FE000FC080808F00040A8A8A8F000087C888841
:100FF000800000000000FC14141408007088888829
:101000007000FC4020508800F400087C8888800034
:10101000087C888880007088888870000000000044
:1010200000000000000000000000000000000000C0
:1010300000000000000000000000000000000000B0
:1010400000000000E800F0101010E00020505050A8
:10105000800010F81010000080505050E000F800A0
:1010600000F8000080505050E00010F81010000010
:10107000E800E0101010E000F0101010E000000098
:101080000000F000F000F000E05050506000F01060
:101090001010E00010F81010000000000000805058
:1010A0005050E000F000F000F000F02010101000B0
:1010B000F0000000F00008084828100000000000C0
:1010C0000000000001000100000001000101010119
:1010D0000000000001010100000101010100000108
:1010E00000000100000101010100000001010100F8
:1010F00001000001010100000100000001000000EA
:1011000000000001000100000001010100000100D9
:1011100000000100000001010100000000000001CA
:10112000E1E1E1E0E0E1E0E1E0E0E1E0E0E0E0E0B9
:10113000E0E5E5E5E3E0E0E0E1E0E0E0E00000003C
:101140000000000000000000E0FCFCFCFEFEFEFED3
:10115000FEFEFEFEFEFEFEFEFEFEFEFEFEFCFCF8B9
:10116000E0000000000000000000000000FEFE069D
:10117000060606060606060606068686860606068F
:10118000060606060606868686868606060606067F
:1011900006060606060606FEFE0000000000000029
:1011A000FFFFFFFFFFFFFFFFFFFFFFFFFFFFFFFF4F
:1011B000FFFFFFFFFFFFFFFFFFFFFFFFFF0000003C
:1011C0000000000000000000FFFFFFFFFF7F7E7FA8
:1011D0007F7F7F7F7F7F7F7F7F7E7F7F7FFFFFFFA0
:1011E000FF000000000000000000000000FFFF0002
:1011F0000000001212120000003F61404000000099
:10120000000000000000FF0808080C0700000000B4
:1012100000000000000000FFFF00000000000000D0
:10122000FFFFFFFFFFFFFFFFFFFFFFFFFFFFFFFFCE
:10123000FFFFFFFFFFFFFFFFFFFFFFFFFF000000BB
:1012400000000000000000000F1F1F1F1F1F1FDFF6
:10125000DFDFDFDFDFDFDFDFDFDFDFDF1F0F0F0FCE
:101260000F000000000000000000000000FFFF0071
:10127000000000000000000000000000000000006E
:10128000000000000000000000000000000000005E
:1012900000000000000000FFFF0000000000000050
:1012A000FFFFFFFFFFFFFFFFFFFFFFFFFFFFFFFF4E
:1012B000FFFFFFFFFFFFFFFFFFFFFFFFFF0000003B
:1012C000000000000000000000000000000000FF1F
:1012D000FFFFFFFFFFFFFFFFFFFFFFFF000000001A
:1012E000000000000000000000000000000F0F0CD4
:1012F0000C0C0C0C0C0C0C0C0C0C0C0C0C0C0C0C2E
:10130000FCFCFCFCFCFCFC0C0C0C0C0C0CFC8C0C1D
:101310000C0C0C0C0C0C0C0F0F000000000000005B
:10132000FFFFFFFFFFFFFFFFFFFFFFFFFFFFFFFFCD
:101330000707FF0707FF07C7C707FFFFFF000000FA
:10134000000000000000000000000000000000FF9E
:10135000FFFFFFFFFFFFFFFFFFFFFFFF0000000099
:10136000000000000000000000000000000000007D
:101370000000000000000000000000000018181825
:101380001F1F1F1F1F1F1F1818180000000001013A
:10139000030202020202020202020202020202022C
:1013A0001F1F1F1F1F1F1F1F1F1F1F1F1F1F1F1F4D
:1013B0001C1C1F1C1C1F1C1C1C1C1F1F1F000000B2
:1013C000000080400000000000000000000000005D
:1013D000000000000000000000000000000000000D
:1013E000000000008000808080808080808080807D
:1013F00080808080808080808080808080808080ED
:1014000080808080808080808080808080808080DC
:10141000808080800080000000000000000000004C
:1014200000000000000000000000000000000000BC
:1014300000000000000000000000000000000000AC
:10144000000000000000000000F8102010F80080EC
:10145000505050E000E0101010F800E05050506084
:1014600000000000FE010000000000C0C0C0F8F84D
:10147000F8383838383838C0C0C0000000000000E4
:10148000000000000000000000000000000000005C
:101490000000000001FE000000F8141414F800F829
:1014A000100808080070888888FC0078808080F820
:1014B00000FC888888700070888888700078808038
:1014C00080F80000000000000001000000010000A2
:1014D0000101010100000101010100000101010001
:1014E00000000000FF000000FEFEFEFFFFFF010104
:1014F000018E8E8E8E8E8E010101FEFEFE0000009A
:1015000000000000000000000000000000000000DB
:101510000000000000FF00000000000000000000CC
:10152000000000E0408040E000804040408000C07B
:101530004080408000804040408000000000020267
:1015400002010000000000000000000080C0A0A018
:101550002000804040408000C080404040000000AB
:1015600000000000FF0000001F1F1FFFFFFFE0E062
:10157000E01F1F1FFFFFFFE0E0E01F1F1F00000034
:101580000C1E1E1E1E1E1E1E1E1E1E1E1E1E0C00BD
:101590000000000000FF000000000000000000004C
:1015A0000000000700000007000305050501000713
:1015B000000700070003050505010000000000000A
:1015C0000000000000000000000000000007000014
:1015D00000000304040403000700000000000000F2
:1015E00000000000FF000000000000000080C0803C
:1015F000C080C080C08000000000000000F8F8F843
:10160000FFFFFF070707C7C7C7C7C7C7C7C7C73891
:101610003838000000FF000000000000000000005B
:1016200000000078849494740040A8A8A8F000F802
:1016300008F008F00070A8A8A83000000000000022
:10164000000000000000000000000000800000001A
:10165000008000000000000000000000000000000A
:1016600000000000FF0000000000000055FF808027
:101670009490948080FF55000000000000FFFFFF61
:10168000FFFFFF000000F1F1F17171710F0F0F000A
:101690000000000000FF000000000000000000004B
:1016A00000000000000000008080800000000000BA
:1016B000000000000000000000000000000000002A
:1016C0000000000000000000000000010F111110D8
:1016D000001F0101011E000E151515060000000077
:1016E000000000007F8000000000000000000100FA
:1016F00001000100010000000000000000030303DE
:101700001F1F1F1C1C1C030303000000000000001F
:1017100000000000807F00000000000000000000CA
:101720000000000000001010100F00000815151533
:101730001E001F011E011E0000000000000000002E
:101740000000000000000000000000000000000099
:101750000000000000000000000000000000000089
:10176000000000000100010101010101010101016E
:101770000101010101010101010101010101010159
:101780000101010101010101010101010101010149
:101790000101010100010000000000000000000044
:1017A0000000000000000000000000000000000039
:1017B0000000000000000000000000000000000029
:1017C00000000000080B00020202000009040000F3
:1017D000010202000005240010010524010101049A
:1017E00024020605240600010705810310004009B4
:1017F000040100020A000000070502024000000781
:101800000583024000000403090412010002EF02F4
:1018100001404123368000010102030141726475D9
:10182000696E6F204C4C430041726475626F7900A1
:10183000AB1511241FBECFEFDAE0DEBFCDBF11E044
:10184000A0E0B1E0EEE2F2E402C005900D92A03912
:10185000B107D9F726E0A0E9B1E001C01D92A23A94
:10186000B207E1F71CE0C9E1DCE004C02197FE010A
:101870000E940F21C831D107C9F70E9430160C947D
:1018800015210C940000E5ECF1E0A0E0B8E0008048
:101890000EBC8111012C1197A0FDFDCF0192B9F76B
:1018A0000DB408958091C40183FD09C08091C301E6
:1018B00083FF05C0809119068F5F809319060895F4
:1018C000FC018091C201882311F13FB7F89482E0B6
:1018D0008093E9002091F200822F90E018161906FB
:1018E00014F481E090E0882339F0289844E640938E
:1018F000C1014091F1004083222339F02091F20090
:10190000211103C02BE62093E8003FBF08958FEF1D
:101910009FEF08952FB7F89483E08093E9009091AA
:10192000E800892F807295FF04C09091F20080E456
:10193000891B2FBF08958091B90181110DC082E0EC
:101940008093B50184E08093B6011092B8011092A3
:10195000B70181E08093B90185EB91E00895CF93C1
:10196000DF931F92CDB7DEB76983DC01ED91FC9167
:101970000280F381E02D41E050E0BE016F5F7F4FB8
:1019800009950F90DF91CF91089583E08093E9004E
:101990008091F200882319F08AE38093E80008958B
:1019A0000E948A0C90E00895CF93DF931F92CDB7E9
:1019B000DEB7FC018485958597FD08C02FEF3FEFCA
:1019C000358724870F90DF91CF910895CE0101963E
:1019D0000E94600C019719F4898190E0F3CF8FEF9A
:1019E0009FEFF0CF0F931F93CF93DF931F92CDB74D
:1019F000DEB78C01FC018485958597FF0BC0CE0175
:101A000001960E94600C019771F4898190E0F801C1
:101A100095878487F801848595850F90DF91CF9114
:101A20001F910F9108958FEF9FEFF1CFFC018485F7
:101A3000958597FD0BC09FB7F89482E08093E900ED
:101A40008091F2009FBF90E0019608959FB7F894AF
:101A500082E08093E9008091F2009FBF90E00895BA
:101A60004091AF015091B0012091AD013091AE0194
:101A700042175307B4F49091E8009570E1F3909108
:101A8000E80092FD19C08093F1008091AF01909120
:101A9000B00101968F739927892B19F48EEF8093EB
:101AA000E8008091AF019091B00101969093B00150
:101AB0008093AF0181E0089580E00895DF92EF9276
:101AC000FF920F931F93CF93DF93D82E8A01EB01E0
:101AD0007B01E40EF51ECE15DF0559F0D7FE12C0CE
:101AE000FE0184910E94300D21968111F4CF0FEFF9
:101AF0001FEFC801DF91CF911F910F91FF90EF90E1
:101B0000DF9008958881EECF0F931F93CF93DF93DB
:101B10001F92CDB7DEB782E0898342E450E064ECE7
:101B200077E180E80E945E0D0E949B0CDC0112961A
:101B30000D911C910115110589F0D801ED91FC91D1
:101B40000280F381E02DBE016F5F7F4FC8010995D0
:101B500097FD04C0F80100851185ECCF89810F90B5
:101B6000DF91CF911F910F910895615030F0209136
:101B7000F100FC0120830196F8CF289884E6809339
:101B8000C1010895FC010E94590E319728F0685157
:101B90007C4F8F4F9F4FF9CFAB01FC010E94590E34
:101BA000641775078E079F07C8F308958F929F9259
:101BB000AF92BF92CF92DF92EF92FF920F931F935B
:101BC000CF93DF936C017B018A0180910B01882305
:101BD00009F45AC08091C201882309F455C080914C
:101BE000B40180FF05C08091E00082608093E00036
:101BF000E801B12C8AEFA82E93E0892E2AE3922ED9
:101C0000209711F4BB20C9F10E948A0C811108C0F1
:101C1000AA94AA20C9F181E090E00E94C20DF0CF01
:101C20008C171D0611F00CF08C2F9FB7F894809242
:101C3000E9002091E80025FD02C09FBFE1CF282FD9
:101C400030E0C21BD30BF701815020F0419140934B
:101C5000F100FACFE20EF31EBB2021F09092E800D3
:101C6000B12CEBCF8091E80085FDE7CF9092E800A2
:101C7000BB24B394209709F3F3CF5D9884E6809357
:101C8000B301101611063CF081E090E0F601938359
:101C9000828310E000E0C801DF91CF911F910F9186
:101CA000FF90EF90DF90CF90BF90AF909F908F907C
:101CB0000895A9EAB1E02FB7F8947D918D919C9198
:101CC00066B52FBFA89B05C06F3F18F47F5F8F4F8D
:101CD0009F4F22E0660F771F881F991F2A95D1F723
:101CE0000895AF92BF92CF92DF92EF92FF920F933F
:101CF0001F93CF93DF936C017B018B01040F151FA2
:101D0000EB015E01AE18BF08C017D10759F0699109
:101D1000D601ED91FC910190F081E02DC60109956D
:101D2000892B79F7C501DF91CF911F910F91FF901A
:101D3000EF90DF90CF90BF90AF9008954F925F9259
:101D40006F927F928F929F92AF92BF92CF92DF92CB
:101D5000EF92FF920F931F93CF93DF934C015901A2
:101D6000FC2DC02FD0E0CE01880D991D1816190644
:101D70000CF067C09B012E0D311D121613060CF0DE
:101D800060C0603471050CF05CC04115510509F468
:101D900058C0262F2770F22EDB0177FD179633E00F
:101DA000B595A7953A95E1F73A2F77FF04C0FF2044
:101DB00011F03FEF3A0F662777276819790997FCEA
:101DC00002C070E060E0803891050CF44BC090E8F0
:101DD0009819961BA32F032E000CBB0B1A2F1095DE
:101DE0003F3F0CF010E021E08E2D877009F420E0D9
:101DF000E694E694E694E20EAE0DB11D19971CF040
:101E000028E0E22EE31AE11A310F20E83203D00174
:101E10001124A80DB91DA60FB71F019F600D711DDC
:101E20001124460F571F0F2D0F2C000C110BF330F0
:101E300009F41CC1C8F4F13009F4D0C0F23009F43F
:101E40007CC0DF91CF911F910F91FF90EF90DF90B9
:101E5000CF90BF90AF909F908F907F906F905F904A
:101E60004F900895902FB5CFFA3FB1F1232F2E0D4B
:101E7000FB3F39F7321729F3BD016B537E4FD12C4D
:101E8000C12CC91608F0A4C0FA01EC0DFD1DE491A7
:101E9000F0E04F01002E02C0880C991C0A94E2F772
:101EA00037FD06C0FB018081E82CE0948E21808301
:101EB000FF2061F0373054F45B01F0E8AF0EB11C45
:101EC000E92CE094F50180818E218083FFEFCF1A09
:101ED000DF0A6F5F7F4FD5CF232F2E0D321709F406
:101EE000B0CFBD016B537E4FD12CC12CC91608F069
:101EF00069C0FA01EC0DFD1DE491F0E04F01002EE8
:101F000002C0880C991C0A94E2F737FD04C0FB015B
:101F1000808188298083FF2051F0373044F45B01B1
:101F2000F0E8AF0EB11CF501808189298083FFEFB5
:101F3000CF1ADF0A6F5F7F4FD9CF6FEF70E00F2CA2
:101F400002C0660F771F0A94E2F760957095772EAE
:101F5000232F2E0D321709F474CFFD01EB53FE4FE2
:101F60006F01B12CA12CA91638F5FA01EA0DFB1D61
:101F7000E491F0E02F01002E02C0440C551C0A949D
:101F8000E2F737FD05C0F60180818623842980832E
:101F9000FF2059F037304CF44601F0E88F0E911CC9
:101FA000F4018081872185298083FFEFAF1ABF0A62
:101FB0008FEFC81AD80AD7CF3F5F4C0F5D1FA058CC
:101FC000BF4FC8CF3F5F4C0F5D1FA058BF4F86CF9C
:101FD0003F5F4C0F5D1FA058BF4F4CCF6A0D7B1D5C
:101FE000232F2E0D321709F42CCFFD01EB53FE4F9A
:101FF0006F01B12CA12CA91688F5FB01EA0DFB1D80
:102000008490912C002E02C0880C991C0A94E2F74F
:1020100080949094FA01EA0DFB1D6490712C002EBF
:1020200002C0660C771C0A94E2F737FD05C0F60182
:102030008081882186298083FF2049F037303CF455
:10204000F601E058FF4F8081892187298083FFEFC7
:10205000AF1ABF0A8FEFC81AD80ACDCF3F5F4C0F17
:102060005D1F6C0F7D1FA058BF4FBCCFC92ED12C58
:10207000FA01E60FF71FAB53BE4F00E810E00C1952
:102080001D09CC19DD09BE01660F771F41E050E044
:102090006A010F2C01C0CC0C0A94EAF7592F2E2D9F
:1020A000792ECF93DF93ED01EF96EF9622968590F0
:1020B000A590FF2059F08C9C4001AC9C500137301A
:1020C0002CF4E880B094EB20E928E99233233AF02D
:1020D000EC90A094EA20E828ED920C9470101196F0
:1020E0005A9529F72A9551F0572D33951124E60F6B
:1020F000F11DA00FB11DC00FD11DD9CFDF91CF9120
:1021000011249FCECF92EF920F93FC010491319650
:10211000E490AC014E5F5F4F82E0C82E30E020E0DB
:1021200070E060E090E080E00E949E0E0F91EF90E2
:10213000CF90089590E00C94C20D8FB18095807F70
:10214000669B88601C9B84600895480F592F511D21
:1021500014161506D4F580389105BCF597FF02C01A
:1021600090E080E04138510514F040E850E0481B11
:10217000FB0177FD379633E0F595E7953A95E1F762
:10218000F695FE2FEE27F795E795E80FF91FEB532D
:10219000FE4F6770772781E090E001C0880F6A9555
:1021A000EAF7382F213041F4415078F08191DF0176
:1021B0001197832B8C93F8CF8095415030F09191FB
:1021C000DF01119798239C93F8CF089590E1282F71
:1021D00081E061FD84E060FD880F62FD8295687F8B
:1021E000969FD0011124A20FAB53BE4F0C90082A2A
:1021F00040FF08260C9208958F929F92AF92BF9253
:10220000CF92DF92EF92FF920F931F93CF93DF93C2
:102210006D3089F0C0909D01D0909E016A30D1F45C
:1022200010929C0110929B0188E0C80ED11CD092A4
:102230009E01C0929D0181E090E0DF91CF911F91BE
:102240000F91FF90EF90DF90CF90BF90AF909F9055
:102250008F90089500919B0110919C01E5E06E9F85
:10226000E0011124C259DE4F5801F12CF5E0E12CB8
:10227000FF1629F0CE010196FE01E490EC01912CAD
:10228000812CF0E8AF16B10458F4B601680D791D41
:102290006034710528F44E2D4170C5010E94E6108E
:1022A000E6948FEF881A980AE8E08E16910449F7B1
:1022B000F394FFEFAF1ABF0A86E0F812D7CF0A5F98
:1022C0001F4F10939C0100939B01B5CFCF93C82F54
:1022D0000E949D10982F9C2381E09C1380E0CF9159
:1022E000089580E00C94430C982FE5ECF1E09111F7
:1022F0009FEF8FEF91939193919391938150D0F7AA
:102300000895DF92EF92FF920F931F93CF93DF9385
:102310007C01D22E8B01040F111DEB0177FF02C04F
:10232000D0E0C0E0C8010134110514F080E490E071
:10233000C817D9075CF480E8E816F10428F44D2D9D
:10234000BE01C7010E94E6102196ECCFDF91CF912C
:102350001F910F91FF90EF90DF900895CF92DF9241
:10236000EF92FF920F93CF93DF936C017B01C42F09
:10237000D22F6034710520F4202FC6010E94A510D1
:10238000B7016D0F711D615071096034710528F43A
:10239000202F4C2FC6010E94A510202F4D2FB701D2
:1023A000C6010E948111C6018C0F911D202F4D2F57
:1023B000B7010197DF91CF910F91FF90EF90DF90E0
:1023C000CF900C948111CF92EF920F93CF93DF9324
:1023D000EC018E816A3069F49D819C836985860F4A
:1023E0008E8381E090E0DF91CF910F91EF90CF90BD
:1023F00008956A3378F4603308F051C0613209F40B
:1024000050C09FE36E3291F098859D5F8C81890F5B
:102410008C83E7CF6134C0F36B3530F09FE9960FC2
:102420009A3190F799EB01C09FEB960F61E0680F2E
:10243000062E000C770BAC810A2E000CBB0BECEACD
:10244000F0E02DEA30E08F81813069F50491F901E7
:10245000E4904EEA50E09923D1F041E050E08E2D17
:10246000877011F450E040E02E2D26952695269594
:10247000240F352F311D029FF001039FF00D112411
:102480009E9FA0019F9F500D112442555F4F9AEFD0
:10249000C92E30E020E0CD010E949E0EB5CF94E021
:1024A000C4CF9EE3C3CF0491F901E4904EEA50E01B
:1024B0009923D1F041E050E08E2D877011F450E067
:1024C00040E02E2D269526952695240F352F311D7B
:1024D000029FF001039FF00D11249E9FA0019F9F7A
:1024E000500D112442555F4F8BEFC82ED2CF089567
:1024F00090E080E00895009769F0FC0101900020D1
:10250000E9F73197AF01481B590BBC018EE196E00A
:102510000C94710E90E080E008951F920F920FB618
:102520000F9211248F939F938091E1009091E1008D
:10253000937F9093E10083FF0FC01092E90091E038
:102540009093EB001092EC0092E39093ED001092C8
:10255000C20198E09093F00082FF22C093E0909334
:10256000E9009091F200992319F09AE39093E80022
:102570009091B301992341F09091B30191509093C0
:10258000B301911101C05D9A9091C101992341F06D
:102590009091C10191509093C101911101C0289A6D
:1025A00084FF18C08091E2008E7E81608093E200FB
:1025B0008091E1008F7E8093E1008091B4018E7E56
:1025C00080618093B4019F918F910F900FBE0F9007
:1025D0001F90189580FFF7CF8091E2008E7E80617A
:1025E0008093E2008091E1008E7E8093E1008091F3
:1025F000B4018E7E8160E5CF1F920F920FB60F92CD
:102600001124CF92DF92EF92FF920F931F932F939B
:102610003F934F935F936F937F938F939F93AF936A
:10262000BF93EF93FF93CF93DF93CDB7DEB76C9754
:10263000DEBFCDBF1092E9008091E80083FF25C086
:1026400068E0CE0145960E94B50D82EF8093E800C8
:102650008D8987FF39C09091E80090FFFCCF982FBB
:10266000907609F034C19E894F89588D2F89F88C56
:10267000911131C0803861F58091B2018093F100F1
:102680001092F1008EEF8093E8006C960FB6F894EC
:10269000DEBF0FBECDBFDF91CF91FF91EF91BF9114
:1026A000AF919F918F917F916F915F914F913F91EA
:1026B0002F911F910F91FF90EF90DF90CF900F908F
:1026C0000FBE0F901F9018959EEF9093E800C7CF14
:1026D0001092F100D5CF913059F48111D3CF413010
:1026E000510581F68091B2018D7F8093B201CACFEE
:1026F000933049F48111C6CF4130510519F68091CC
:10270000B2018260F2CF953041F48091E80080FF01
:10271000FCCF20682093E300B5CF963009F0A9C024
:102720000B8D1C8D22E01092E9001092B0011092E6
:10273000AF01F2122EC01092AE011092AD010E94B4
:10274000840D1F8299E09983FA8291E09E8390EA3A
:1027500098879AEF99872091AF013091B001275F58
:102760003F4F3C832B838D831092E9001092B00180
:102770001092AF011093AE010093AD0149E050E01B
:10278000BE016F5F7F4F80E00E945E0D0E94840D4E
:1027900079CF1093AE010093AD010E949B0CDC0138
:1027A00012960D911C910115110509F451C1D80122
:1027B000ED91FC910480F581E02DBE016B5E7F4FB1
:1027C000C8010995009709F03EC1F80100851185FF
:1027D000EACFF3E0FF120EC08F89882309F440C0CE
:1027E000823061F440E867E088E298E10E94781561
:1027F000811148CF81E28093EB0047CF813029F4EB
:1028000040E86BE08CE198E1F1CF833099F70E94CA
:102810009B0CDC011296ED90FC908E010F5F1F4F18
:102820006801E114F10479F0D701ED91FC91068083
:10283000F781E02DB801C7010995080F111DF701B7
:10284000E084F184EECFD8011C92F60101900020C3
:10285000E9F73197BF016C197D0940E0C601C6CF89
:1028600066E078E1FB01449150E080E80E945E0D53
:1028700009CF973009F4BECF983021F481E08093DE
:10288000F10000CF993009F0FDCE837009F0B2CF8E
:10289000EFE1F1E081E031E096E32191222371F054
:1028A0008093E9003093EB00DF0111972C91209386
:1028B000EC009093ED008F5F873079F78EE780937F
:1028C000EA001092EA008F898093C201DBCE8B8DE3
:1028D0009C8D1092E9001092B0011092AF0190937C
:1028E000AE018093AD01898D811192C08E899D8941
:1028F000913A49F4813209F07DCF47E050E064E03D
:1029000071E080E0B3CF913209F074CF833269F483
:102910008F89988DB0E0A0E0809300019093010131
:10292000A0930201B0930301ADCE803269F480918F
:10293000E80082FFFCCF67E084E091E00E94B50DE3
:102940008BEF8093E8009ECE823209F09BCE8F8978
:1029500080930B01EEEFFFE7859194918B3F9C4DA7
:1029600051F1E0E0F8E08091040190910501A0911F
:102970000601B0910701803B9440A105B105F1F437
:1029800080910B0180FD1AC0EE3F8AE0F80789F5BF
:1029900087E797E791838083809160008093B101FE
:1029A00088E19BE00FB6F894A895809360000FBE75
:1029B0009093600067CEEEEFFAE0D5CF80819181F1
:1029C0008737974709F05ECEA895809160008861AF
:1029D000809360008091B10180936000EE3F2AE017
:1029E000F20789F08091FE0A9091FF0A918380831B
:1029F00049CE808191818737980751F29093FF0AE1
:102A00008093FE0AC5CF1092FF0A1092FE0A3ACEBA
:102A10000E949B0CDC0112960D911C910115110571
:102A200009F4E8CED801ED91FC910190F081E02D00
:102A3000BE016B5E7F4FC8010995811123CEF8015D
:102A400000851185EBCF181619060CF41BCED2CEDB
:102A5000F1E0FF12BECE6AE078E104CF0F920FB62C
:102A60008F939F93EF93FF938091A4018D5F8D3798
:102A700008F08D578093A401E5EAF1E080818E4F44
:102A8000808391819F4F918382818F4F8283838145
:102A90008F4F8383E9EAF1E080818F5F80838181BA
:102AA0008F4F818382818F4F828383818F4F838376
:102AB0008FB18F6066991C9B88278F3681F4809137
:102AC000A301981B963068F0E0E0F8E087E7808388
:102AD000818388E180936000F0936000FFCF909342
:102AE000A301FF91EF919F918F910FBE0F901895C9
:102AF000EF92FF920F931F93CF93DF93F82E192F2E
:102B0000E62E042F81E0860F880F0E94300D83E0AF
:102B10000E94300DCF2DD12FEC0EFD2EF11CCE15C5
:102B2000DF05B9F007FF13C0FE0184910E94300D4C
:102B3000182F80E00E94300D812321968111EFCF64
:102B4000DF91CF911F910F91FF90EF9008958881B1
:102B5000EDCF81E0F5CF1092C8051092C70588EE41
:102B600093E0A0E0B0E08093C9059093CA05A093DC
:102B7000CB05B093CC0589E291E09093C605809394
:102B8000C5058FEF9FEF9093D2058093D1051092EA
:102B90001D0610921C0687E491E090931B0680931B
:102BA0001A0610922106109220068BE391E0909372
:102BB0001F0680931E0688E08093270691E090937D
:102BC0002606109223061092240610922206909355
:102BD0002506109229061092280610922A06809344
:102BE0003B068CE080933C0680E090E0A0E7B2E4F6
:102BF00080932B0690932C06A0932D06B0932E065F
:102C000080E090E0A0EDB1E480932F069093300631
:102C1000A0933106B093320680911001909111017A
:102C2000A0911201B091130180933E0690933F064C
:102C3000A0934006B0934106E2E4F6E098E08CE011
:102C4000908B818B108211821282138214821582E2
:102C500016821782789626E0E23AF20789F70895FD
:102C6000CDB7DEB7A997DEBFCDBF789483E084BD32
:102C700083E085BD81E080936E00E1E8F0E083E0D1
:102C80008083E0E881E08083E1E983E08083E0E91C
:102C900081E08083E1EC87E08083E3EC81E0808366
:102CA000E0EC82E08083E2EC81E08083EAE787E089
:102CB0008083806880831092C2011092B2011092CA
:102CC000B4018091D70081608093D70080EA80931F
:102CD000D80089B5806189BD89B5826089BD09B494
:102CE00000FEFDCF81E090E00E94C20D8091D800EF
:102CF0008F7C80618093D8008091E000807F8093FA
:102D0000E0008091E1008E7E8093E1008DE0809371
:102D1000E200559A209A81EC80937C0081EF85B97E
:102D200087EE84B982E38BB982EF8AB9769A6E987E
:102D300080EF81BB10BA80E58CBD81E08DBD85E060
:102D40000E949A105F9A85E00E949A105C98EEE1CA
:102D5000F7E085918EBD00000DB407FEFDCFEB328C
:102D6000C1F75C9A81E88093640081E080936500FC
:102D70000E94711180E80E9466118823A9F05C9876
:102D800085EA8EBD00000DB407FEFDCF5C9A2E983B
:102D90002F982D988091640080628093640081E078
:102DA00083BF889513BEFCCF84E00E946611882300
:102DB000B9F12D9884E80E9466118823A1F02D9A1C
:102DC00088EC0E949A102F986FEF82E090E00E94AA
:102DD000B51E84EF91E00E94C20D2F9A84E80E94F4
:102DE00066118111FBCF84E10E9466118823A1F056
:102DF0002D9A88EC0E949A102E9860E082E090E074
:102E00000E94B51E84EF91E00E94C20D2E9A84E1CB
:102E10000E9466118111FBCF88EC0E949A10C4CFEA
:102E20002D9A82E090E00E94AD1E882309F464C0D0
:102E30003E9A3F9A81E090E00E94AD1E082F0470F8
:102E4000F02E81FF0CC001112E9801EF1FEF80E4DE
:102E50000E946611882309F452C02E9A2F9A82E3A9
:102E60000E949A100E949D108111F9CF80916400F8
:102E70008E7F8093640080917A00806480937A00D2
:102E800080917A0086FDFCCF009178001091790046
:102E90000E94590EAB01BC01C801B0E0A0E0DC010A
:102EA000992788278C019D01040F151F261F371FA6
:102EB000C901B8012091640021602093640061156C
:102EC00071058105910511F00E94A41E10922A0639
:102ED0008BE297E090932906809328068091A101C8
:102EE000882309F4A7C01092A10180E090E0892B0B
:102EF000A9F30E940000F2CF3E983F989BCFFF209D
:102F000029F00430110511F42E9A2F9881E00E94C7
:102F1000430C202F2770E22EA80133E055954795EA
:102F20003A95E1F79A013695322F22273795279562
:102F30002B533E4F70E060E04E3F8FEF580761F13A
:102F400090E080E0DB01A259B94F6901E0E8CE0EC4
:102F5000D11CFD01E80FF91FE491F0E03F010E2CB8
:102F600002C0660C771C0A94E2F74F3F540739F011
:102F70005901A80EB91EF50194889628948AEE206E
:102F800039F05601A80EB91EF50194889728948A45
:102F9000019688359105E9F64F5F5F4F20583F4F06
:102FA000685A7F4F603B710539F60E9471118FE0BE
:102FB0000E949A100F5F1F4F0931110509F047CF8A
:102FC000FF2011F02F9A2D9880E991E00E94C20D08
:102FD0002D9A81E090E00E94AD1E80FF40CF8AE0F4
:102FE00090E00E94AD1E9FEF980F9E3F08F037CFF4
:102FF00022E330E030939C0120939B0128E330E0F2
:1030000030939E0120939D010BE010E0682F8AE130
:1030100096E00E94FC10C8010E94AD1E0F5F1F4F7A
:103020000131110599F70E94711188EE93E00E9419
:10303000C20D15CF8091A5019091A201182F191BE7
:10304000103140F41F3009F450CF81E083BF8895E0
:1030500013BE4BCF91E09093A1018093A201EFE9C1
:10306000F1E0808191810196808391838091C301F9
:103070008093C4010E949D108093C30180E00E9450
:10308000741110929E0110929D0110929C01109259
:103090009B01E0911906E730E8F4F0E0EE5AF74EB4
:1030A0000C940F2159186D18721877189F18A418CE
:1030B000D51880919F019091A00164EB70E00E946F
:1030C000FB20892B19F481E08093190682EC93E1AF
:1030D0000E9482100E94711108CF0E94520C80EC55
:1030E0009FE0F6CF0E94520C8EEB9BE0F1CF8091D7
:1030F0009F019091A00165E070E00E94FB20892B68
:1031000019F481E00E94741180919F019091A001B7
:103110006AE070E00E94FB20892B19F480E00E9495
:10312000741180919F019091A00168E770E00E9466
:10313000FB20892B79F684E080931906CBCF0E947F
:10314000520C8CEB97E0C4CF80919F019091A0012D
:1031500083709927892B71F480912A06E0912806C3
:10316000F0912906E80FF11DE491EE2319F08F5F2D
:1031700080932A0610E0E0912A066091280670915B
:1031800029061E1750F4610F711DFB0164918AE13D
:1031900096E00E94FC101F5FEECFE60FF72FF11DA7
:1031A000E491E11197CF86E0C7CF80E80E946611D5
:1031B0008823B1F02DEC3CEC4CE45EE360913706E3
:1031C000709138068091390690913A060E942A1F24
:1031D00060933706709338068093390690933A06C9
:1031E00080E10E9466118823B1F02DEC3CEC4CE4A8
:1031F0005EE36091370670913806809139069091B0
:103200003A060E942B1F609337067093380680930E
:10321000390690933A0680E20E9466118823C1F035
:103220002DEC3CEC4CE45EE3609133067091340687
:1032300080913506909136060E942A1F60933306CE
:1032400070933406809335069093360610923D06AF
:1032500080E40E9466118823C9F02DEC3CEC4CE41C
:103260005EE360913306709134068091350690914B
:1032700036060E942B1F60933306709334068093AA
:1032800035069093360681E080933D0620E030E0DD
:10329000A90160912F0670913006809131069091BE
:1032A00032060E94971F87FF08C010922F061092C7
:1032B0003006109231061092320680913C0660E48E
:1032C00070E0681B7109072E000C880B990B0E9497
:1032D00046206B017C01AC019B0160912F0670912F
:1032E000300680913106909132060E94F620181621
:1032F00044F4C0922F06D0923006E0923106F0924C
:10330000320620E030E0A90160912B0670912C0676
:1033100080912D0690912E060E94971F87FF08C06E
:1033200010922B0610922C0610922D0610922E064B
:1033300080913B0660E870E0681B7109072E000C65
:10334000880B990B0E9446206B017C01AC019B010C
:1033500060912B0670912C0680912D0690912E067F
:103360000E94F620181644F4C0922B06D0922C0628
:10337000E0922D06F0922E062AE939E949E95FE349
:10338000609133067091340680913506909136062F
:103390000E949C1F4B015C01809233069092340680
:1033A000A0923506B09236062AE939E949E95FE389
:1033B00060913706709138068091390690913A06EF
:1033C0000E949C1F6B017C01C0923706D092380688
:1033D000E0923906F0923A06A501940160912B061D
:1033E00070912C0680912D0690912E060E942B1F25
:1033F00060932B0670932C0680932D0690932E06D7
:10340000A701960160912F067091300680913106D8
:10341000909132060E942B1F60932F067093300606
:10342000809331069093320602E416E01BA30AA3B0
:1034300018011DA21CA280902B0690902C06A09033
:103440002D06B0902E0680912F0690913006A09107
:103450003106B09132068EA39FA3A8A7B9A7D101C8
:1034600055968C915597811140C0ECA1FDA1EB5E62
:10347000F94F11A556961C920E94551E29E730E07F
:1034800040E050E00E94C71E645C7F4F8F4F9F4F0B
:103490000E9446200E94152070E080919F0190912B
:1034A000A0010E94FB20892B01F50E94551E22E0FD
:1034B00030E040E050E00E94C71EF101628B6623BD
:1034C00009F4B6C1613009F4BCC1612F70E090E02D
:1034D00080E00E944420D10114966D937D938D93DA
:1034E0009C931797E1E05596EC93D10152968C91FD
:1034F000882309F4B7C1813009F4C7C1F101C08044
:10350000D180E280F380008910E0B80160587F4FDD
:10351000072E000C880B990B0E9446209B01AC01E2
:10352000C701B6010E94F62087FD03C0D101559660
:103530001C92F0E0E0E0E01BF10B8F01BF01660F91
:10354000771F072E000C880B990B0E9446209B01C9
:10355000AC01C701B6010E94971F18161CF0D101DB
:1035600055961C92F1018689882309F4ACC0B801F4
:10357000110F880B990B0E9446209B01AC01C701DB
:10358000B6010E94971FD10114964D905D906D90E9
:103590007C901797181644F520E030E040E053E4A3
:1035A000C701B6010E94F62087FF1EC0F1016189A4
:1035B00070E0719561957109072E000C880B990BCD
:1035C0000E9446209B01AC01C301B2010E94971FDB
:1035D000181654F420E030E040E852E4C301B20190
:1035E0000E94F62087FD03C0D10155961C92A501CB
:1035F0009401C701B6010E94F620181694F42AE03F
:1036000037ED43EA5DE3F10160857185828593853D
:103610000E942B1FD10118966D937D938D939C93DF
:103620001B97A5019401C701B6010E94971F87FF50
:1036300012C02AE037ED43EA5DE3F1016085718550
:10364000828593850E942A1FD10118966D937D93E0
:103650008D939C931B972EA13FA148A559A5C3010B
:10366000B2010E94F620181694F42AE037ED43EADE
:103670005DE3F10164857585868597850E942B1F22
:10368000D1011C966D937D938D939C931F972EA1D2
:103690003FA148A559A5C301B2010E94971F87FF0A
:1036A00012C02AE037ED43EA5DE3F10164857585D8
:1036B000868597850E942A1FD1011C966D937D9364
:1036C0008D939C931F97F1018789811102C0148A01
:1036D000138A2AE939E949E95FE3D10118966D9126
:1036E0007D918D919C911B970E949C1F2B013C0109
:1036F000F10140865186628673862AE939E949E9F3
:103700005FE364857585868597850E949C1F4B01C4
:103710005C01D1011C968D929D92AD92BC921F9737
:10372000A3019201C701B6010E942B1FF101608322
:10373000718382839383A50194016481758186815D
:1037400097810E942B1FD10114966D937D938D93C9
:103750009C9317970CA11DA10F5F1F4F1DA30CA3D6
:1037600018E1210E311C0CA11DA10430110509F036
:1037700062CE1092230610922206109224068FE445
:1037800091E00E947B12609115067091160680915F
:103790001706909118060E9415209B0150E040E00A
:1037A00019A28E010F5D1F4FCA01B9012AE030E056
:1037B00040E050E00E94F91E605DD8016E938D01DB
:1037C000211531054105510579F7109769F0FD0183
:1037D00001900020E9F73197AF014A1B5B0BBD0157
:1037E0008EE196E00E94710EEAA1FBA1B188C0882B
:1037F00064817581868197810E940E207B01AAA138
:10380000BBA16D917D918D919C910E940E208B01A9
:10381000C60ED72ED11C0C151D050CF042C021E0A0
:103820004B2DB701C8010E9481110F5F1F4FF3CFCD
:1038300080E090E0A0E0B3E480839183A283B3832F
:1038400044CE608970E0719561957109072E000C76
:10385000880B990B0E944620F1016083718382835B
:10386000938333CE2AE037ED43EA5DE3F1016085CF
:103870007185828593850E942A1FD10118966D93C8
:103880007D938D939C931B9739CE2AE037ED43EAC5
:103890005DE3F10160857185828593850E942B1F10
:1038A000ECCF20E030E040E450E4EAA1FBA16481E9
:1038B0007581868197810E942B1F0E940E206B01CB
:1038C00020E030E040E050E4AAA1BBA16D917D91E1
:1038D0008D919C910E942B1F0E940E20CB0100E035
:1038E00022E041E0B6010E94AE1120E030E040E469
:1038F00050E4EAA1FBA164817581868197810E94D1
:103900002B1F0E940E206B0120E030E040EA50E4C3
:10391000AAA1BBA16D917D918D919C910E942B1FBD
:103920000E940E20CB0122E041E0B6010E94AE11C0
:10393000EAA1FBA180809180A280B380C0902B0679
:10394000D0902C06E0902D06F0902E0620E030E07E
:1039500040E051E4C701B6010E942B1F9B01AC015E
:10396000C501B4010E94971F18160CF4D9C020E0BD
:1039700030E040E051E4C501B4010E942B1F9B01DF
:10398000AC01C701B6010E94971F18160CF4C8C0FD
:10399000AAA1BBA114968D909D90AD90BC90179755
:1039A000C0902F06D0903006E0903106F09032069D
:1039B00020E030E040E451E4C701B6010E942B1F33
:1039C0009B01AC01C501B4010E94971F18160CF4AD
:1039D000A7C020E030E040E451E4C501B4010E94FA
:1039E0002B1F9B01AC01C701B6010E94971F18163F
:1039F0000CF496C088E00E946611882309F493C0F5
:103A000020E030E040E051E460912F0670913006F4
:103A100080913106909132060E942A1F0E940E204A
:103A2000162F20E030E040EC51E460912B067091BD
:103A30002C0680912D0690912E060E942A1F0E942E
:103A40000E206093230660932206109324068DE5D2
:103A500091E00E947B1220E030E040E051E4AAA116
:103A6000BBA114966D917D918D919C9117970E94A9
:103A70002A1F0E940E20162F20E030E040E051E483
:103A8000EAA1FBA160817181828193810E942A1F3A
:103A90000E940E2060932306609322061093240652
:103AA000AAA1BBA157968C91811118C00E94551EE6
:103AB00025E030E040E050E00E94C71E660F771F0F
:103AC0006C5E7E4FFB0180819181AAA1BBA15496BF
:103AD0009C938E93539781E057968C93EAA1FBA118
:103AE000838994890E947B1281E0AAA1BBA156968A
:103AF0008C9323E333E343EB5EE36091150670910F
:103B0000160680911706909118060E942B1F60934D
:103B1000150670931606809317069093180603C037
:103B2000EAA1FBA1178AEAA1FBA17896FBA3EAA36D
:103B3000E25AF64009F058CE60912F067091300697
:103B400080913106909132060E940E206B016091A7
:103B50002B0670912C0680912D0690912E060E94C6
:103B60000E20CB0101E020913C0640913B06B601BE
:103B70000E94AE1120E030E040E450E460912F0656
:103B80007091300680913106909132060E942B1F71
:103B90000E940E206B0120E030E040E050E4609194
:103BA0002B0670912C0680912D0690912E060E9476
:103BB0002B1F0E940E20CB0122E041E0B6010E94A3
:103BC000AE1120E030E040E450E460912F067091A7
:103BD000300680913106909132060E942B1F0E9480
:103BE0000E206B0120E030E040EA50E460912B06AB
:103BF00070912C0680912D0690912E060E942B1F0D
:103C00000E940E20CB0122E041E0B6010E94AE11DD
:103C100061CA8F929F92AF92BF92CF92DF92EF9242
:103C2000FF92CF93DF93EC01688179818A819B8138
:103C3000611571058105910521F464E279ED8BE54B
:103C400097E02DE133EF41E050E00E94C71E4901AB
:103C50005A019B01AC01A7EAB1E40E94E61E6B0188
:103C60007C01ACEEB4EFA50194010E94F41EC60ED7
:103C7000D71EE81EF91EF7FE06C081E0C81AD1085B
:103C8000E10880E8F80AC882D982EA82FB82C7018B
:103C9000B6019F77DF91CF91FF90EF90DF90CF90AB
:103CA000BF90AF909F908F9008958F929F92AF9208
:103CB000BF92CF92DF92EF92FF9260910C017091D0
:103CC0000D0180910E0190910F0161157105810523
:103CD000910521F464E279ED8BE597E02DE133EF76
:103CE00041E050E00E94C71E49015A019B01AC010E
:103CF000A7EAB1E40E94E61E6B017C01ACEEB4EFD2
:103D0000A50194010E94F41EC60ED71EE81EF91EDE
:103D1000F7FE06C081E0C81AD108E10880E8F80A79
:103D2000C0920C01D0920D01E0920E01F0920F01B1
:103D3000C701B6019F77FF90EF90DF90CF90BF90C3
:103D4000AF909F908F90089560930C0170930D0138
:103D500080930E0190930F010895F999FECF92BDC3
:103D600081BDF89A992780B50895262FF999FECF3D
:103D700092BD81BDF89A019700B4021639F01FBABE
:103D800020BD0FB6F894FA9AF99A0FBE0895052E41
:103D900097FB1EF400940E94DE1E57FD07D00E9480
:103DA000F91E07FC03D04EF40C94DE1E509540958E
:103DB000309521953F4F4F4F5F4F089590958095D7
:103DC000709561957F4F8F4F9F4F08950E941B1FE5
:103DD000A59F900DB49F900DA49F800D911D11245F
:103DE0000895B7FF0C94E61E0E94E61E821B930BFB
:103DF0000895A1E21A2EAA1BBB1BFD010DC0AA1F2C
:103E0000BB1FEE1FFF1FA217B307E407F50720F043
:103E1000A21BB30BE40BF50B661F771F881F991FBE
:103E20001A9469F760957095809590959B01AC0107
:103E3000BD01CF010895A29FB001B39FC001A39F10
:103E4000700D811D1124911DB29F700D811D1124D3
:103E5000911D08955058BB27AA270E94421F0C9419
:103E6000BC200E94AE2038F00E94B52020F039F42A
:103E70009F3F19F426F40C94AB200EF4E095E7FB79
:103E80000C94A520E92F0E94CD2058F3BA176207A1
:103E900073078407950720F079F4A6F50C94EF20BA
:103EA0000EF4E0950B2EBA2FA02D0B01B901900155
:103EB0000C01CA01A0011124FF27591B99F0593F99
:103EC00050F4503E68F11A16F040A22F232F342FE1
:103ED0004427585FF3CF469537952795A795F0402F
:103EE0005395C9F77EF41F16BA0B620B730B840B44
:103EF000BAF09150A1F0FF0FBB1F661F771F881FFC
:103F0000C2F70EC0BA0F621F731F841F48F4879553
:103F100077956795B795F7959E3F08F0B0CF939545
:103F2000880F08F09927EE0F9795879508950E94BE
:103F3000812008F481E008950E94B01F0C94BC20F9
:103F40000E94B52058F00E94AE2040F029F45F3F57
:103F500029F00C94A52051110C94F0200C94AB2066
:103F60000E94CD2068F39923B1F3552391F3951B5B
:103F7000550BBB27AA2762177307840738F09F5F8A
:103F80005F4F220F331F441FAA1FA9F335D00E2EF7
:103F90003AF0E0E832D091505040E695001CCAF764
:103FA0002BD0FE2F29D0660F771F881FBB1F261727
:103FB00037074807AB07B0E809F0BB0B802DBF01FE
:103FC000FF2793585F4F3AF09E3F510578F00C94CD
:103FD000A5200C94F0205F3FE4F3983ED4F386953F
:103FE00077956795B795F7959F5FC9F7880F911DEE
:103FF0009695879597F90895E1E0660F771F881FDA
:10400000BB1F621773078407BA0720F0621B730B8C
:10401000840BBA0BEE1F88F7E09508950E941520D7
:104020006894B1110C94F02008950E94D52088F076
:104030009F5798F0B92F9927B751B0F0E1F0660F6C
:10404000771F881F991F1AF0BA95C9F714C0B130AD
:1040500091F00E94EF20B1E008950C94EF20672FBB
:10406000782F8827B85F39F0B93FCCF386957795DC
:104070006795B395D9F73EF49095809570956195C5
:104080007F4F8F4F9F4F0895E89409C097FB3EF4F0
:1040900090958095709561957F4F8F4F9F4F992395
:1040A000A9F0F92F96E9BB279395F6958795779513
:1040B0006795B795F111F8CFFAF4BB0F11F460FFD3
:1040C0001BC06F5F7F4F8F4F9F4F16C0882311F02B
:1040D00096E911C0772321F09EE8872F762F05C03F
:1040E000662371F096E8862F70E060E02AF09A95DA
:1040F000660F771F881FDAF7880F9695879597F9CF
:104100000895990F0008550FAA0BE0E8FEEF161668
:104110001706E807F907C0F012161306E407F507BB
:1041200098F0621B730B840B950B39F40A2661F02F
:10413000232B242B252B21F408950A2609F4A140D2
:10414000A6958FEF811D811D089597F99F6780E8DF
:1041500070E060E008959FEF80EC089500240A94D9
:104160001616170618060906089500240A94121652
:104170001306140605060895092E0394000C11F485
:10418000882352F0BB0F40F4BF2B11F460FF04C032
:104190006F5F7F4F8F4F9F4F089557FD9058440F8B
:1041A000551F59F05F3F71F04795880F97FB991F96
:1041B00061F09F3F79F08795089512161306140653
:1041C000551FF2CF4695F1DF08C0161617061806E0
:1041D000991FF1CF86957105610508940895E894BB
:1041E000BB2766277727CB0197F908950E94812086
:1041F00008F48FEF0895AA1BBB1B51E107C0AA1F4B
:10420000BB1FA617B70710F0A61BB70B881F991F77
:104210005A95A9F780959095BC01CD010895EE0FB0
:10422000FF1F0590F491E02D0994F894FFCFFFFF54
:10423000FFFF00E100000000000001000000071681
:1042400025346F0176017B018301890100C18081E2
:1042500000000000000000AF0CD60DD00CC50C16FD
:104260000DD40CF20C00000000E311710E781277EF
:104270001200000000FC10710E7812771257656969
:1042800072646F204C6576656C20004920757365FB
:104290002041726475626F792042545700576569F6
:1042A00072646F004E6572640042726F205754460C
:0E42B000004F6B61793F0053746F7021000066
:1074000080E189BD82E189BD09B400FEFDCF089508
:10741000CAD569F08091E9008F931092E9009FD45A
:1074200083FF01C01ED58F9187708093E900089576
:107430008EEF0090E10008220092E1000895F20131
:10744000F999FECFF2BDE1BD0895F9DFF89A80B554
:1074500008C0F5DF1FBA80BD0FB6F894FA9AF99A02
:107460000FBE31962F010895E0E0F0E085919491F0
:107470000196089580EE8BB98BEA34D01092890082
:107480008AEF8093880082E080936F0083E080938E
:107490008100E7E5F7E785913AD0E336E1F781E04F
:1074A0008093D7008AE482BF1092D8001092E20045
:1074B0001092DA001092E10080E808D019BC1EBAE0
:1074C0001092E00062D489E053D481E98093D8001F
:1074D0000895A3E6B1E090E81AD08D939A95E1F76C
:1074E000089586E008D010C083E005D08F2F0FD01C
:1074F0008E2F0DD080E05E9A599809C005D085E0A6
:10750000FADF05D080FDFDCF599A5E9808958EBDB3
:107510008DB587FFFDCF8EB508958FE08221E9F705
:10752000F3DFE3E6F6E090EB5C98892FF0DF80E193
:10753000EEDF5C9A8191EBDF83E68E278F77D1F7C0
:107540009395983B89F70895E3E6F1E097FC36C000
:1075500094FC4DC092FE089596849920D1F3F8943E
:10756000C089D78520E030E080E090E4AFEFBFEF46
:10757000119689199040E0F72D01BD4F8D0127FD2F
:1075800013C0E0E0F8E011928EE7819392E4E117F6
:1075900091939AE508F092E4E334C9F7819310825D
:1075A000BFDFFE012196A0DF94DFF901FFD4205850
:1075B0003F4F040D151D9A9411F712C28301282D17
:1075C00060906C0170906B0143D019F48823C1F76F
:1075D0000895380188243CD0C9F580916A0182174A
:1075E00009F4830160906E0170906D01F4CF80E129
:1075F000982E60906E0170906D012AD059F4882306
:10760000B1F708959FEF95FC03C096FE089591E0B1
:1076100097FB890E662477248301222719D0B1F4C1
:107620008823A1F380916A0136F0881650F48217FE
:1076300030F0213003C0881520F4281710F483019E
:10764000282F60906E0170906D01E8CF3801822E76
:10765000F3014ADF3EDFC3E6D1E0E0E5F7E709905A
:107660008591081621F4E735D1F7088080104CCFBA
:10767000C9E031DFCA95E9F7D0E197FC55C094FC29
:1076800037C096FE1AC0C3E6D2E0E3E6F6E098E023
:1076900088E78E0F00840192E817E1F7884F099080
:1076A0000192E817E1F7C858DF4F9A9589F735DF5F
:1076B000C85FD340C33E49F749C0C3E6D6E0EBE517
:1076C000FAE098E08E2F885702900086E817E1F7DD
:1076D00038960A900292E817E1F73897C857D040D9
:1076E0009A9581F71ADFC850DC4FC33E41F72EC090
:1076F000A3EEB6E0E3E6F6E09AE0C6E00D90808106
:107700008025807F802582958193A336B90709F46F
:10771000B2E0E336F90709F4F2E0E336FC0771F76B
:10772000FCDEDA9529F712C0A3EEB9E0E3E6FAE051
:1077300092E00E90829180258F70802582958083C3
:10774000E336F907B1F7E9DEDA9571F7882708958E
:1077500041524455424F59D5F08D14A1C881CFD91B
:10776000F1AF000000FFFFCFCFFFFFFFFFCFCFFF44
:10777000FF0000FE067E7E06FE46565616FE0656A4
:10778000461EFE3F61E9E3FFE3EBE3FFE3EBE3FFCC
:10779000E16B3F0012011001020000084123360096
:1077A00001000000000109023E00020100803209D0
:1077B000040000010202010005240010010424025B
:1077C000040524060001070582030800FF090401DF
:1077D00000020A00000007050402100001070583EB
:0477E0000210000192
:1078000011241FBE04B714BE88E18093600010925B
:1078100060008EEF9AE09EBF8DBF222433242101A9
:107820003101410180E88AC00F928F939F931F928C
:107830000FB60F9211244F936F938091DA0080FF5F
:1078400037C023C00F920FB68F939F93EF93FF9390
:1078500088278093850080938400E0E5F1E09281A1
:10786000907261F490818917980B908309F45D9A66
:1078700091818917980B918309F4289A239411F424
:107880008315381EFF91EF9154C08091D80080FF7E
:107890000FC08091DA008E7F8093DA008091D9004A
:1078A00080FF04C0ADDD81E08EBB02C019BC1EBAF2
:1078B0008091E10080FF0BC055D280FF08C055D2F7
:1078C0008091D800806202DE19BC85E08EBB809179
:1078D000E10084FF1AC046D284FF17C091DD809179
:1078E000D8008F7DF3DD8FEEA4DD3CD28F7E8160EA
:1078F0003FD280915301882331F48091E30087FDCA
:1079000002C081E001C084E08EBB8091E10083FF72
:107910000CC028D283FF09C087EF8BDD82E08EBBCD
:107920001092530185DD21D230D26F914F910F908B
:107930001F909F918F910FBE0F90189580936100BB
:1079400010926100B1E0B5BF82E085BF81EF85B9DB
:1079500087EE84B91DB8769A10BA83EF81BB82E6B0
:107960008BB982EF8AB980E58CBDBDBDA0E0E4E9AA
:10797000F7E705900D92A035E1F71D92BB30E9F7CE
:1079800001FD06C0000004C07C9B02C06DDD41F516
:1079900071DD78945DDE71F0ABE9B7E0E3E6F7E71F
:1079A00090E105900D929A95E1F7A059BF4FE33908
:1079B000B9F7B7DD52D02CDD80915201807861F4A7
:1079C0008FB18095807F66991C9B8460982E1ADE0B
:1079D0008110BADD92FC02C0332062F745DD51F31D
:1079E000F89489EB7FDD81E08093E00010926F00D6
:1079F00010928100109285001092840081E085BF72
:107A000015BE2E9A2F9A2D9A5D9A289A0C940000F2
:107A1000A4D107C057D102C0C6D239F0A0D182FF8D
:107A2000FBCF85FFF7CF8091F1000895082E83E00A
:107A300095D185FD07C08AD102C0B5D269F08FD13A
:107A400080FFFBCF0092F10080915201807221F4FF
:107A50005D9884E68093500108957FD182FF34C100
:107A600080915201807221F4289884E6809351011C
:107A7000CFDF182F853431F422248EE7382EDFDC57
:107A80008DE00BC1843511F4C3DFFACF8C34C1F320
:107A90008035B1F3843721F484E4C8DF80E0FDC091
:107AA000813611F489E5F9C0813429F4B1DF582E0B
:107AB000AFDF482EE5CF803711F483E5EEC0833584
:107AC00039F4E0E5F7E78591B1DFE735E1F7E6C0A6
:107AD000863521F481E3AADF89E3DFC0863761F4CC
:107AE00081E3669B8E5F1C9B8F5FA0DF8FB18095CB
:107AF00082958F708F5BD1C08837A9F489DF80931E
:107B00005201289A84FD28985D9A83FD5D982E9AEB
:107B100081FD2E982F9A82FD2F982D9A80FD2D9809
:107B200087FD8824ADCF8A3649F48FE9E4DCC3E0D1
:107B3000EEDC7CDFCA95E1F7E7DCB0C0833731F4D7
:107B400087E874DF85E972DF8EE1A7C0853639F4F6
:107B5000E0E8F3E73ED2E058F040E0F791CF82361C
:107B600031F489E563DF80E061DF80E896C082342C
:107B700019F0873609F07DC033244ADFD82F48DF5B
:107B8000C82F46DF082F8354843008F085C00634A0
:107B900011F4440C551CF20110926F001736B9F421
:107BA000033489F483E0A1DCB2DC8EB51EBC3EDF79
:107BB0000DB42197D1F7A8DC08C0063411F48591E3
:107BC00001C043DC33DF2197C2F72F014AC00334E1
:107BD000A9F4E11104C085DC88ED87DC8FDC81DC51
:107BE00082E083DC15DF0DB48EBDCA95D9F73196DE
:107BF0008FDC84DCDA9569F72F0131C00634F1F4AB
:107C00009F01F437D8F4E5D119C002DF063461F4DE
:107C1000C0FB46F0F43728F4182E81E087BFE895C2
:107C200011243296082E0AC0043439F4DF01B370EF
:107C3000AD59B94F8D93319601C00BDC21972AF7CE
:107C4000043431F42F01F370FE2B49F46ADC07C0D1
:107C5000063429F42F01F901F43708F4B8D18DE086
:107C6000E5DE063411F45694479482E080936F0069
:107C700015C08237E1E049F08634E0E031F08E341F
:107C8000E3E019F0813531F4E2E0F0E089E087BF0C
:107C9000849103C08B3111F08FE3C8DE83E0C5DB34
:107CA00055D095FF03C009C07ED171F058D080FF38
:107CB000FBCF4CD002C077D139F051D080FFFBCF41
:107CC00084E0B3DB8BE743C00895E4E5F1E067E0CF
:107CD00090915B0180915C01913231F0913AE1F534
:107CE0008132D1F55ED181C0823271F48191805BA5
:107CF0008191844089F580915D0180FD2DC0F894CB
:107D000081E08093E0007CCD803231F54AD14BD1C7
:107D1000E9F08530D9F023D083FD18C082FFF7CF7A
:107D200004C081DE8193615031F09091F300809125
:107D3000F200892BB1F7C6DF611549F704C033D1D2
:107D400029F0853019F00BD080FFF9CF8EE79091A4
:107D5000E80089238093E800089584E066DB809141
:107D6000E80008958091E2000895FCDF8E7F806135
:107D70008093E200089582E061EC09D083E061E83D
:107D800002D084E060E842E103C080E060E042E0CD
:107D90004CDB81E007D01092ED006093EC00409343
:107DA000ED0008959091EB00892B8093EB000895EE
:107DB00060E0923029F0913029F4E0E062E102C005
:107DC000E2E16EE3F1E0089580915B0188234CF4D9
:107DD00002C0E9D0C1F3C3DF82FFFBCF73CFE3D092
:107DE00091F3BDDF80FFFBCFB1CF40916101509196
:107DF00062014617510520F0462F611509F4A6DFF0
:107E000050E022C0D0D061F1853051F1A8DF83FD70
:107E100059CFA5DF82FD21C080FF16C03091F3004D
:107E20002091F20006C081918093F10041502F5FB4
:107E30003F4F411519F028303105A8F350E02830A4
:107E4000310509F451E082DF4115E1F65523D1F601
:107E500004C0A9D029F0853019F081DF82FFF9CF65
:107E600031CFEBE5F1E0DFDD8193E336E1F72DDFA4
:107E700076DF83FF91C080915B0190915C0191302E
:107E800009F170F09330F1F0953009F444C0963068
:107E900009F456C0983009F460C0993059F767C0AA
:107EA000823841F780915F01BFDA2091EB00109298
:107EB000E90077D02295269521702093F100109249
:107EC000F10052C0882311F08230A1F68F71823008
:107ED00089F680915D018823D1F420915F0127709C
:107EE00049F22093E9008091EB0080FF10C09330AD
:107EF00011F480E20BC080E155DF81E0880F2A9504
:107F0000E9F78093EA001092EA0088E04BDF1092D4
:107F1000E90047D02AC0882391F410915D011068D0
:107F20000FB7F8943ED050DF1ADF80FFFDCF1093DB
:107F3000E300103883E009F482E08EBB0FBF2CC051
:107F40008058823048F580915D0190915E0130DF6C
:107F5000603011F126D049DF1FC08038E9F421D00C
:107F6000809153018093F100F1DE2EDF15C088234C
:107F700099F490915D01923078F49093530111D06F
:107F800023DF80915301882321F48091E30091E065
:107F900087FD94E09EBBEFDEE2DE83FF089580E282
:107FA00001DF87EFD4CE8EB388230895A3E6B1E036
:107FB000F437B8F40ED090E40D901D9081E087BFA7
:107FC000E89532969A95C1F71124E058F04085E083
:107FD00001C083E001D081E187BFE89507B600FCCE
:047FE000FDCF089534
:067FFA003139D9CFFBDC98
:00000001FF
