:100000000C941B0C0C94430C0C94430C0C94430C5C
:100010000C94430C0C94430C0C94430C0C94430C24
:100020000C94430C0C94430C0C9495120C940413F4
:100030000C94430C0C94430C0C94430C0C94430C04
:100040000C94430C0C94430C0C94430C0C94430CF4
:100050000C94430C0C94430C0C94430C0C943615E8
:100060000C94430C0C94430C0C94430C0C94430CD4
:100070000C94430C0C94430C0C94430C0C94430CC4
:100080000C94430C0C94430C0C94430C0C94430CB4
:100090000C94430C0C94430C0C94430C0C94430CA4
:1000A0000C94430C0C94430C0C94430C03081F0554
:1000B0001F1F151B1F11111F110E1F15111F0501E9
:1000C0001F111D1F041F001F0010101F1F041B1FE6
:1000D00010101F061F1F011F1F111F1F05071F31B3
:1000E0001F1F051B17151D011F011F101F0F100FCC
:1000F0001F0C1F1B041B071C071915130C121E1FB6
:10010000120C1E12120C121F0C1A14041F052E2A98
:100110001E1F021C001D00201D001F041A011F00CD
:100120001E041E1E021E1E121E3E120C0C123E1E2D
:10013000020614120A020F121E101E0E100E1E08C6
:100140001E1A041A2E281E1A12161F111F001F0035
:100150001D151711151F07041F17151D1F151D014C
:10016000011F1F151F17151F001700001000011594
:100170000200000000003E5B4F5B3E3E6B4F6B3E5B
:100180001C3E7C3E1C183C7E3C181C577D571C1C9A
:100190005E7F5E1C00183C1800FFE7C3E7FF0018F5
:1001A000241800FFE7DBE7FF30483A060E262979DE
:1001B0002926407F050507407F05253F5A3CE73C3F
:1001C0005A7F3E1C1C08081C1C3E7F14227F2214F0
:1001D0005F5F005F5F06097F017F006689956A6047
:1001E0006060606094A2FFA29408047E040810205E
:1001F0007E201008082A1C08081C2A08081E101057
:1002000010100C1E0C1E0C30383E3830060E3E0E00
:1002100006000000000000005F000000070007006B
:10022000147F147F14242A7F2A1223130864623651
:10023000495620500008070300001C2241000041DD
:10024000221C002A1C7F1C2A08083E080800807017
:10025000300008080808080000606000201008044A
:10026000023E5149453E00427F400072494949469D
:100270002141494D331814127F1027454545393C1B
:100280004A49493141211109073649494936464908
:1002900049291E000014000000403400000008142A
:1002A00022411414141414004122140802015909A3
:1002B000063E415D594E7C1211127C7F49494936F8
:1002C0003E414141227F4141413E7F494949417F71
:1002D000090909013E414151737F0808087F004127
:1002E0007F41002040413F017F081422417F404070
:1002F00040407F021C027F7F0408107F3E41414145
:100300003E7F090909063E4151215E7F09192946B0
:10031000264949493203017F01033F4040403F1FC6
:100320002040201F3F4038403F63140814630304FB
:100330007804036159494D43007F4141410204085B
:100340001020004141417F0402010204404040402E
:1003500040000307080020545478407F2844443864
:100360003844444428384444287F385454541800AE
:10037000087E090218A4A49C787F0804047800442D
:100380007D40002040403D007F1028440000417F18
:1003900040007C047804787C0804047838444444A1
:1003A00038FC1824241818242418FC7C0804040899
:1003B000485454542404043F44243C4040207C1CB2
:1003C0002040201C3C4030403C44281028444C90A5
:1003D00090907C4464544C440008364100000077FF
:1003E0000000004136080002010204023C262326D8
:1003F0003C1EA1A161123A4040207A38545455590C
:100400002155557941215454784121555478402043
:10041000545579400C1E527212395555555939545C
:1004200054545939555454580000457C41000245F4
:100430007D420001457C40F0292429F0F028252840
:10044000F07C545545002054547C547C0A097F4963
:1004500032494949323248484832324A4848303AAB
:100460004141217A3A42402078009DA0A07D394444
:100470004444393D4040403D3C24FF2424487E49CB
:1004800043662B2FFC2F2BFF0929F620C0887E09FD
:100490000320545479410000447D413048484A3299
:1004A000384040227A007A0A0A727D0D19317D2681
:1004B00029292F28262929292630484D4020380867
:1004C00008080808080808382F10C8ACBA2F1028E8
:1004D00034FA00007B000008142A142222142A1483
:1004E000089500220095AA005500AAAA55AA55AA67
:1004F000000000FF00101010FF00141414FF001083
:1005000010FF00FF1010F010F0141414FC0014146D
:10051000F700FF0000FF00FF1414F404FC1414178C
:10052000101F10101F101F1414141F00101010F0B3
:10053000000000001F101010101F10101010F010FD
:10054000000000FF101010101010101010FF10000D
:100550000000FF140000FF00FF00001F1017000044
:10056000FC04F414141710171414F404F40000FF1E
:1005700000F714141414141414F700F714141417B7
:100580001410101F101F141414F4141010F010F095
:1005900000001F101F0000001F14000000FC1400CA
:1005A00000F010F01010FF10FF141414FF141010BE
:1005B000101F00000000F010FFFFFFFFFFF0F0F041
:1005C000F0F0FFFFFF0000000000FFFF0F0F0F0F14
:1005D0000F38444438447C2A2A3E147E0202060620
:1005E000027E027E0263554941633844443C044024
:1005F0007E201E2006027E020299A5E7A5991C2AEC
:10060000492A1C4C7201724C304A4D4D30304878AA
:100610004830BC625A463D3E494949007E010101CD
:100620007E2A2A2A2A2A44445F444440514A4440AC
:1006300040444A51400000FF0103E080FF000008F1
:10064000086B6B083612362436060F090F060000B9
:1006500018180000001010003040FF0101001F01B9
:10066000011E00191D1712003C3C3C3C000000001C
:1006700000F0F89C8E8783878E9CF8F00000FEFFC8
:100680000303030303070EFCF80000FEFF0303034C
:100690000303070EFCF80000FFFF0000000000004D
:1006A00000FFFF0000FEFF8383838383C7EE7C3857
:1006B0000000F8FC0E07030303070EFCF800003FE0
:1006C0007FE0C08080C0E07F3FFFFF0101010101AA
:1006D0000101FFFF0000FFFF0C0C0C0C1C3E77E338
:1006E000C100007FFFC0C0C0C0C0E0703F1F00005D
:1006F0001F3F70E0C0C0C0E0703F1F00007FFFC11F
:10070000C1C1C1C1E3773E1C00001F3F70E0C0C003
:10071000C0E0703F1F000000000001FFFF0100006B
:1007200000D5F08D14A1C881CFD9F1AF200041666A
:10073000746572207965617273206F660A696E73E1
:1007400074616C6C696E6720616E640A636F6E66BB
:1007500069677572696E672C20796F7520617265A3
:100760000A6E6F772072656164792E20476F206171
:100770006E640A74656C6C2074686520776F726CA7
:100780006420746861740A746865792063616E6EB0
:100790006F740A636F6D70726568656E6420796F3F
:1007A00075720A756C74696D61746520706F776518
:1007B000722E202020202020202020202020008099
:1007C0004000FE0202024242828202020202020251
:1007D000C2424242820282424242820282424242F9
:1007E000820282C2A2A2220282424242820242E2E9
:1007F00042420202824242424202E24242428202B9
:1008000002020202020202020202020202020202C8
:10081000020202020202C2F2020202020202020208
:1008200002020202020202020202020202020202A8
:10083000020202020202020202020202020202FE9C
:100840000000FF000000040402020100000000009C
:100850000700000007000305050501000304040468
:100860000300000700000000030505050100000368
:10087000040404000304040404000700000007004B
:100880000000000000000000000000000000000068
:10089000000080E0F8FFFFFFFFFCE0C00000000068
:1008A0000000000000000000000000000000000048
:1008B000000000000000000000000000000000FF39
:1008C0000000FF000000FC444444380038545454F5
:1008D00018007C08040404007E2010284400240032
:1008E000000000007E44444438007C0804040400F6
:1008F00020545454780038444444FC000000000064
:10090000000000000000000000000000000080C0A7
:10091000F0FEFFFFFFFFFFFFFFFFFFFFFCF0E080A7
:1009200000000000000000000000000000000000C7
:10093000000000000000000000000000000000FFB8
:100940000000FF00000080404040400080404040E8
:100950008000804040408000E00000400000000037
:1009600000A000C0404040800080C0A0A020000047
:100970000000000000000001010100000000000074
:100980000000000000000000000000C0F0FCFFFFBD
:10099000FFFFFFFFFFFFFFFFFFFFFFFFFFFFFFFF67
:1009A000FEF0E080000000000000000000000000F9
:1009B000000000000000000000000000000000FF38
:1009C0000000FF0000000304040404000304040406
:1009D00003000304040403000304000200000000F9
:1009E00000070007000000070000070000000000EB
:1009F00000000000000000000000000000000000F7
:100A000000000000000000C0E0FCFEFFFFFFFFFF51
:100A1000FFFF1F07030301010101010103071FFF7E
:100A2000FFFFFFFFFFFCF8E0800000000000000077
:100A3000000000000000000000000000000000FFB7
:100A40000000FF00002054545478007C0804040483
:100A5000003844444444007E040404780024000028
:100A60000000002054545478000C3040300C007CBE
:100A70000804040400000000000000000000000062
:100A80000000C0E0F8FCFFFFFFFFFFFFFFFFFFFFDC
:100A90007F3F180000000000000000003070FCFFE5
:100AA000FFFFFFFFFFFFFFFFFFFFFCF8F0800000EC
:100AB000000000000000000000000000000000FF37
:100AC0000000FF00000040408080000000000000A7
:100AD000C0A0A0A0C000000000000000E0A0A0A0F6
:100AE00020000000000000000000000000000000E6
:100AF000000000000000000000000080C0E0F0F8EE
:100B0000FCFFFFFFFFFF7F3F3F1F1F0F0707030093
:100B100000000000000000000000000000000000D5
:100B200003070F0F1F1F3F3F7F7F7FFFFFFFFFFC6C
:100B3000F8F0C0808000000000000000000000FF0E
:100B400000007F40404044444242414040404040D9
:100B5000474040404740444444444440474040406C
:100B60004040404040404040404040404040404085
:100B7000404040404040404044464747474343434D
:100B80004341414040404040404040404040404060
:100B90004040404040404040404040404040404055
:100BA0004040404040404040404040404041414142
:100BB0004141414141414040404040404040407FF0
:100BC0000080400000000000000000000000000065
:100BD0000000000000000000000000000000000015
:100BE0000000000000000000000000000000000005
:100BF00000000000000000000000000000000000F5
:100C000000000000000000000000000000000000E4
:100C100000000000000000000000000000000000D4
:100C200000000000000000000000000000000000C4
:100C300000000000000000000000000000000000B4
:100C400000000000000000000000000000000000A4
:100C5000000000000000000000000000000000E0B4
:100C6000808080E000004040408000C0000000C064
:100C70000080404040800000000000C0000000C034
:100C800000804040408000C0000000C00000000024
:100C900000804040408000C0000000C00080404014
:100CA000408000C080404040000000000000000084
:100CB0000000000000000000000000000000000034
:100CC0000000000000000000000000000000000024
:100CD000000000000000000000000000000000070D
:100CE00000000007000205050507000003040300DB
:100CF0000003050505010000000000030404040FC3
:100D000000030404040300030404040700000000BB
:100D100000030505050100000304030000030505A9
:100D200005010007000000000000000000000000B6
:100D300000000000000000000000000000000000B3
:100D400000000000000000000000000000000000A3
:100D50000000000000000000000000000000000093
:100D600000FC080808F00070A8A8A8300040A8A857
:100D7000A8F000F8100808080070888888FC0000B7
:100D800000000070888888700010F81414040000B7
:100D9000000000087C88888000FC080808F00070CB
:100DA000A8A8A8300000000000000000000000001B
:100DB0000000000000000000000000000000000033
:100DC0000000000000000000000000000000000023
:100DD0000000000000000000000080808000000093
:100DE0000000000000000000008000000000000083
:100DF0000080000000000000000000000000000073
:100E000000000000000000000000008000800000E2
:100E10000000000000008000000000000000000052
:100E200000000000000000808080800000000000C2
:100E300000000000000000000000000000000000B2
:100E400000000000000000000000000000000000A2
:100E50000000000000000000001F0202021F001F2F
:100E600002010101000E1111111F000F1010101FBF
:100E7000001F1111110E000E1111110E000F505014
:100E8000503F00000000000E1111111F001E001243
:100E90001515150800010F111110001F02010101A5
:100EA000000E1111110E00000014020100000000DC
:100EB0000000000000000000000000000000000032
:100EC0000000000000000000000000000000000022
:100ED0000000000000000000000000000000000012
:100EE0000000000000000000000000000000000002
:100EF00000000000000000000000000000000000F2
:100F000000000000000000000000000000000000E1
:100F100000000000000000000000000000000000D1
:100F200000000000000000000000000000000000C1
:100F300000000000000000000000000000000000B1
:100F400000000000000000000000000000000000A1
:100F50000000000000000000000000000000000091
:100F60000000000000000000000000000000000081
:100F70000000000000000000000000000000000071
:100F80000000000000000000000000000000000061
:100F90000000000000000000000000000000000051
:100FA0000000000000000000000000000000000041
:100FB0000000000000000000000000000000000031
:100FC0000000008040000088949494640070888839
:100FD00088700080008000800000000000087C888D
:100FE000888000FC080808F00040A8A8A8F00008C5
:100FF0007C8888800000000000FC14141408007035
:101000008888887000FC4020508800F400087C88A4
:10101000888000087C88888000708888887000003C
:1010200000000000000000000000000000000000C0
:1010300000000000000000000000000000000000B0
:1010400000000000000000E800F0101010E0002098
:10105000505050800010F81010000080505050E0A8
:1010600000F80000F8000080505050E00010F81028
:10107000100000E800E0101010E000F0101010E088
:101080000000000000F000F000F000E05050506060
:1010900000F0101010E00010F81010000000000028
:1010A0000080505050E000F000F000F000F0201000
:1010B000101000F0000000F00008084828100000A0
:1010C000000000000000000100010000000100011C
:1010D0000101010000000001010100000101010106
:1010E00000000100000100000101010100000001F9
:1010F00001010001000001010100000100000001E8
:1011000000000000000001000100000001010100DA
:1011100000010000000100000001010100000000CA
:10112000000001E1E1E1E0E0E1E0E1E0E0E1E0E058
:10113000E0E0E0E0E5E5E5E3E0E0E0E1E0E0E0E09C
:101140000000000000000000000000E0FCFCFCFECD
:10115000FEFEFEFEFEFEFEFEFEFEFEFEFEFEFEFEAF
:10116000FCFCF8E0000000000000000000000000AF
:10117000FEFE06060606060606060606068686869F
:10118000060606060606060606868686868606067F
:1011900006060606060606060606FEFE0000000017
:1011A000000000FFFFFFFFFFFFFFFFFFFFFFFFFF4C
:1011B000FFFFFFFFFFFFFFFFFFFFFFFFFFFFFFFF3F
:1011C0000000000000000000000000FFFFFFFFFF24
:1011D0007F7E7F7F7F7F7F7F7F7F7F7F7E7F7F7F21
:1011E000FFFFFFFF00000000000000000000000003
:1011F000FFFF000000001212120000003F6140409B
:10120000000000000000000000FF0808080C0700B4
:1012100000000000000000000000FFFF00000000D0
:10122000000000FFFFFFFFFFFFFFFFFFFFFFFFFFCB
:10123000FFFFFFFFFFFFFFFFFFFFFFFFFFFFFFFFBE
:1012400000000000000000000000000F1F1F1F1F13
:101250001F1FDFDFDFDFDFDFDFDFDFDFDFDFDF1FDE
:101260000F0F0F0F00000000000000000000000042
:10127000FFFF000000000000000000000000000070
:10128000000000000000000000000000000000005E
:1012900000000000000000000000FFFF0000000050
:1012A000000000FFFFFFFFFFFFFFFFFFFFFFFFFF4B
:1012B000FFFFFFFFFFFFFFFFFFFFFFFFFFFFFFFF3E
:1012C000000000000000000000000000000000001E
:1012D0000000FFFFFFFFFFFFFFFFFFFFFFFFFF001B
:1012E00000000000000000000000000000000000FE
:1012F0000F0F0C0C0C0C0C0C0C0C0C0C0C0C0C0C28
:101300000C0C0CFCFCFCFCFCFCFC0C0C0C0C0C0C8D
:10131000FC8C0C0C0C0C0C0C0C0C0F0F00000000C7
:10132000000000FFFFFFFFFFFFFFFFFFFFFFFFFFCA
:10133000FFFFFF0707FF0707FF07C7C707FFFFFFFD
:10134000000000000000000000000000000000009D
:101350000000FFFFFFFFFFFFFFFFFFFFFFFFFF009A
:10136000000000000000000000000000000000007D
:10137000000000000000000000000000000000006D
:101380001818181F1F1F1F1F1F1F181818000000F4
:101390000001010302020202020202020202020230
:1013A0000202021F1F1F1F1F1F1F1F1F1F1F1F1FA4
:1013B0001F1F1F1C1C1F1C1C1F1C1C1C1C1F1F1F55
:1013C000000000000080400000000000000000005D
:1013D000000000000000000000000000000000000D
:1013E00000000000000000800080808080808080FD
:1013F00080808080808080808080808080808080ED
:1014000080808080808080808080808080808080DC
:1014100080808080808080008000000000000000CC
:1014200000000000000000000000000000000000BC
:1014300000000000000000000000000000000000AC
:10144000000000000000000000000000F810201064
:10145000F80080505050E000E0101010F800E0500C
:1014600050506000000000FE010000000000C0C0FD
:10147000C0F8F8F8383838383838C0C0C000000034
:10148000000000000000000000000000000000005C
:101490000000000000000001FE000000F814141419
:1014A000F800F8100808080070888888FC00788028
:1014B0008080F800FC8888887000708888887000B8
:1014C00078808080F800000000000000010000002B
:1014D0000100000101010100000101010100000102
:1014E00001010000000000FF000000FEFEFEFFFF03
:1014F000FF0101018E8E8E8E8E8E010101FEFEFE99
:1015000000000000000000000000000000000000DB
:101510000000000000000000FF00000000000000CC
:10152000000000000000E0408040E00080404040BB
:101530008000C0408040800080404040800000002B
:101540000002020201000000000000000000008014
:10155000C0A0A02000804040408000C080404040AB
:1015600000000000000000FF0000001F1F1FFFFF21
:10157000FFE0E0E01F1F1FFFFFFFE0E0E01F1F1F75
:101580000000000C1E1E1E1E1E1E1E1E1E1E1E1EE7
:101590001E0C000000000000FF0000000000000022
:1015A000000000000000070000000700030505051B
:1015B0000100070007000700030505050100000002
:1015C000000000000000000000000000000000001B
:1015D00007000000000304040403000700000000EB
:1015E00000000000000000FF0000000000000000FC
:1015F00080C080C080C080C080000000000000006B
:10160000F8F8F8FFFFFF070707C7C7C7C7C7C7C76F
:10161000C7C7383838000000FF0000000000000095
:1016200000000000000078849494740040A8A8A8EA
:10163000F000F808F008F00070A8A8A8300000003A
:10164000000000000000000000000000000000801A
:10165000000000008000000000000000000000000A
:1016600000000000000000FF000000000000005526
:10167000FF80809490948080FF550000000000005F
:10168000FFFFFFFFFFFF000000F1F1F17171710F2B
:101690000F0F000000000000FF000000000000002D
:1016A00000000000000000000000008080800000BA
:1016B000000000000000000000000000000000002A
:1016C0000000000000000000000000000000010F0A
:1016D000111110001F0101011E000E151515060045
:1016E000000000000000007F8000000000000000FB
:1016F00000010001000100010000000000000000E6
:101700000303031F1F1F1C1C1C0303030000000016
:1017100000000000000000807F00000000000000CA
:101720000000000000000000001010100F00000872
:101730001515151E001F011E011E000000000000EF
:101740000000000000000000000000000000000099
:101750000000000000000000000000000000000089
:101760000000000000000001000101010101010171
:101770000101010101010101010101010101010159
:101780000101010101010101010101010101010149
:101790000101010101010100010000000000000041
:1017A0000000000000000000000000000000000039
:1017B0000000000000000000000000000000000029
:1017C00000000000000000080B00020202000009F7
:1017D000040000010202000005240010010524019C
:1017E00001010424020605240600010705810310F7
:1017F000004009040100020A00000007050202403F
:1018000000000705830240000004030904120100E0
:1018100002EF020140412336800001010203014131
:10182000726475696E6F204C4C430041726475623E
:101830006F790000B31511241FBECFEFDAE0DEBFD1
:10184000CDBF11E0A0E0B1E0EEE3F2E402C005900C
:101850000D92A039B107D9F726E0A0E9B1E001C0A7
:101860001D92A23AB207E1F71CE0CBE1DCE004C034
:101870002197FE010E941721CA31D107C9F70E94A2
:1018800038160C941D210C940000E5ECF1E0A0E06A
:10189000B8E000800EBC8111012C1197A0FDFDCF96
:1018A0000192B9F70DB408958091C40183FD09C078
:1018B0008091C30183FF05C0809119068F5F8093DB
:1018C00019060895FC018091C201882311F13FB7E8
:1018D000F89482E08093E9002091F200822F90E05A
:1018E0001816190614F481E090E0882339F028983E
:1018F00044E64093C1014091F1004083222339F036
:101900002091F200211103C02BE62093E8003FBF95
:1019100008958FEF9FEF08952FB7F89483E0809399
:10192000E9009091E800892F807295FF04C09091A2
:10193000F20080E4891B2FBF08958091B9018111C5
:101940000DC082E08093B50184E08093B6011092CF
:10195000B8011092B70181E08093B90185EB91E065
:101960000895CF93DF931F92CDB7DEB76983DC0173
:10197000ED91FC910280F381E02D41E050E0BE0149
:101980006F5F7F4F09950F90DF91CF91089583E0AE
:101990008093E9008091F200882319F08AE3809314
:1019A000E80008950E948C0C90E00895CF93DF9397
:1019B0001F92CDB7DEB7FC018485958597FD08C0E1
:1019C0002FEF3FEF358724870F90DF91CF91089558
:1019D000CE0101960E94620C019719F4898190E072
:1019E000F3CF8FEF9FEFF0CF0F931F93CF93DF9342
:1019F0001F92CDB7DEB78C01FC018485958597FFDA
:101A00000BC0CE0101960E94620C019771F489818E
:101A100090E0F80195878487F801848595850F907B
:101A2000DF91CF911F910F9108958FEF9FEFF1CF2D
:101A3000FC018485958597FD0BC09FB7F89482E0E3
:101A40008093E9008091F2009FBF90E00196089595
:101A50009FB7F89482E08093E9008091F2009FBFE5
:101A600090E008954091AF015091B0012091AD01F7
:101A70003091AE0142175307B4F49091E80095708D
:101A8000E1F39091E80092FD19C08093F1008091FC
:101A9000AF019091B00101968F739927892B19F4AA
:101AA0008EEF8093E8008091AF019091B001019694
:101AB0009093B0018093AF0181E0089580E0089594
:101AC000DF92EF92FF920F931F93CF93DF93D82E65
:101AD0008A01EB017B01E40EF51ECE15DF0559F0FE
:101AE000D7FE12C0FE0184910E94320D2196811111
:101AF000F4CF0FEF1FEFC801DF91CF911F910F912E
:101B0000FF90EF90DF9008958881EECF0F931F93A1
:101B1000CF93DF931F92CDB7DEB782E0898342E493
:101B200050E067EC77E180E80E94600D0E949D0C18
:101B3000DC0112960D911C910115110589F0D80157
:101B4000ED91FC910280F381E02DBE016F5F7F4F2C
:101B5000C801099597FD04C0F80100851185ECCFF7
:101B600089810F90DF91CF911F910F91089561505E
:101B700030F02091F100FC0120830196F8CF2898E5
:101B800084E68093C1010895FC010E945B0E3197A9
:101B900028F068517C4F8F4F9F4FF9CFAB01FC016C
:101BA0000E945B0E641775078E079F07C8F30895A0
:101BB0008F929F92AF92BF92CF92DF92EF92FF925D
:101BC0000F931F93CF93DF936C017B018A01809168
:101BD0000B01882309F45AC08091C201882309F4BB
:101BE00055C08091B40180FF05C08091E000826003
:101BF0008093E000E801B12C8AEFA82E93E0892EB3
:101C00002AE3922E209711F4BB20C9F10E948C0C7C
:101C1000811108C0AA94AA20C9F181E090E00E9435
:101C2000C40DF0CF8C171D0611F00CF08C2F9FB750
:101C3000F8948092E9002091E80025FD02C09FBF42
:101C4000E1CF282F30E0C21BD30BF701815020F0E9
:101C500041914093F100FACFE20EF31EBB2021F038
:101C60009092E800B12CEBCF8091E80085FDE7CFA2
:101C70009092E800BB24B394209709F3F3CF5D98CA
:101C800084E68093B301101611063CF081E090E0E9
:101C9000F6019383828310E000E0C801DF91CF91C9
:101CA0001F910F91FF90EF90DF90CF90BF90AF907A
:101CB0009F908F900895A9EAB1E02FB7F8947D9195
:101CC0008D919C9166B52FBFA89B05C06F3F18F4FE
:101CD0007F5F8F4F9F4F22E0660F771F881F991FEE
:101CE0002A95D1F70895AF92BF92CF92DF92EF92EB
:101CF000FF920F931F93CF93DF936C017B018B01B6
:101D0000040F151FEB015E01AE18BF08C017D10705
:101D100059F06991D601ED91FC910190F081E02D8F
:101D2000C6010995892B79F7C501DF91CF911F91E4
:101D30000F91FF90EF90DF90CF90BF90AF900895FC
:101D40004F925F926F927F928F929F92AF92BF92CB
:101D5000CF92DF92EF92FF920F931F93CF93DF9377
:101D60004C015901FC2DC02FD0E0CE01880D991DEA
:101D7000181619060CF067C09B012E0D311D1216A6
:101D800013060CF060C0603471050CF05CC04115A6
:101D9000510509F458C0262F2770F22EDB0177FD7C
:101DA000179633E0B595A7953A95E1F73A2F77FF67
:101DB00004C0FF2011F03FEF3A0F6627772768191C
:101DC000790997FC02C070E060E0803891050CF45E
:101DD0004BC090E89819961BA32F032E000CBB0B49
:101DE0001A2F10953F3F0CF010E021E08E2D8770E8
:101DF00009F420E0E694E694E694E20EAE0DB11DFF
:101E000019971CF028E0E22EE31AE11A310F20E8BE
:101E10003203D0011124A80DB91DA60FB71F019FD1
:101E2000600D711D1124460F571F0F2D0F2C000C34
:101E3000110BF33009F41CC1C8F4F13009F4D0C01F
:101E4000F23009F47CC0DF91CF911F910F91FF9088
:101E5000EF90DF90CF90BF90AF909F908F907F904A
:101E60006F905F904F900895902FB5CFFA3FB1F1EA
:101E7000232F2E0DFB3F39F7321729F3BD016B538A
:101E80007E4FD12CC12CC91608F0A4C0FA01EC0D6C
:101E9000FD1DE491F0E04F01002E02C0880C991C5A
:101EA0000A94E2F737FD06C0FB018081E82CE0943C
:101EB0008E218083FF2061F0373054F45B01F0E81D
:101EC000AF0EB11CE92CE094F50180818E21808356
:101ED000FFEFCF1ADF0A6F5F7F4FD5CF232F2E0D75
:101EE000321709F4B0CFBD016B537E4FD12CC12CFA
:101EF000C91608F069C0FA01EC0DFD1DE491F0E08F
:101F00004F01002E02C0880C991C0A94E2F737FD9D
:101F100004C0FB01808188298083FF2051F0373085
:101F200044F45B01F0E8AF0EB11CF5018081892912
:101F30008083FFEFCF1ADF0A6F5F7F4FD9CF6FEF3C
:101F400070E00F2C02C0660F771F0A94E2F76095CD
:101F50007095772E232F2E0D321709F474CFFD01C3
:101F6000EB53FE4F6F01B12CA12CA91638F5FA01E5
:101F7000EA0DFB1DE491F0E02F01002E02C0440C9D
:101F8000551C0A94E2F737FD05C0F60180818623CF
:101F900084298083FF2059F037304CF44601F0E863
:101FA0008F0E911CF4018081872185298083FFEFAA
:101FB000AF1ABF0A8FEFC81AD80AD7CF3F5F4C0FAE
:101FC0005D1FA058BF4FC8CF3F5F4C0F5D1FA0588B
:101FD000BF4F86CF3F5F4C0F5D1FA058BF4F4CCF08
:101FE0006A0D7B1D232F2E0D321709F42CCFFD0116
:101FF000EB53FE4F6F01B12CA12CA91688F5FB0104
:10200000EA0DFB1D8490912C002E02C0880C991CB7
:102010000A94E2F780949094FA01EA0DFB1D649013
:10202000712C002E02C0660C771C0A94E2F737FD73
:1020300005C0F6018081882186298083FF2049F030
:1020400037303CF4F601E058FF4F80818921872921
:102050008083FFEFAF1ABF0A8FEFC81AD80ACDCF1F
:102060003F5F4C0F5D1F6C0F7D1FA058BF4FBCCF53
:10207000C92ED12CFA01E60FF71FAB53BE4F00E873
:1020800010E00C191D09CC19DD09BE01660F771F80
:1020900041E050E06A010F2C01C0CC0C0A94EAF731
:1020A000592F2E2D792ECF93DF93ED01EF96EF96DA
:1020B00022968590A590FF2059F08C9C4001AC9C05
:1020C000500137302CF4E880B094EB20E928E992F5
:1020D00033233AF0EC90A094EA20E828ED920C9497
:1020E000721011965A9529F72A9551F0572D33956C
:1020F0001124E60FF11DA00FB11DC00FD11DD9CFC6
:10210000DF91CF9111249FCECF92EF920F93FC01DC
:1021100004913196E490AC014E5F5F4F82E0C82E8F
:1021200030E020E070E060E090E080E00E94A00EEF
:102130000F91EF90CF90089590E00C94C40D8FB163
:102140008095807F669B88601C9B84600895480F03
:10215000592F511D14161506D4F580389105BCF57C
:1021600097FF02C090E080E04138510514F040E84C
:1021700050E0481BFB0177FD379633E0F595E79576
:102180003A95E1F7F695FE2FEE27F795E795E80FDC
:10219000F91FEB53FE4F6770772781E090E001C095
:1021A000880F6A95EAF7382F213041F4415078F0D2
:1021B0008191DF011197832B8C93F8CF809541504B
:1021C00030F09191DF01119798239C93F8CF0895F7
:1021D00090E1282F81E061FD84E060FD880F62FDC1
:1021E0008295687F969FD0011124A20FAB53BE4FFA
:1021F0000C90082A40FF08260C9208958F929F9217
:10220000AF92BF92CF92DF92EF92FF920F931F9304
:10221000CF93DF936D3089F0C0909D01D0909E01E7
:102220006A30D1F410929C0110929B0188E0C80E94
:10223000D11CD0929E01C0929D0181E090E0DF917F
:10224000CF911F910F91FF90EF90DF90CF90BF90B3
:10225000AF909F908F90089500919B0110919C01E9
:10226000E5E06E9FE0011124CF58DE4F5801F12CBC
:10227000F5E0E12CFF1629F0CE010196FE01E49075
:10228000EC01912C812CF0E8AF16B10458F4B601A2
:10229000680D791D6034710528F44E2D4170C5011B
:1022A0000E94E810E6948FEF881A980AE8E08E16EC
:1022B000910449F7F394FFEFAF1ABF0A86E0F812D2
:1022C000D7CF0A5F1F4F10939C0100939B01B5CF9E
:1022D000CF93C82F0E949F10982F9C2381E09C13BE
:1022E00080E0CF91089580E00C94450C982FE5ECA8
:1022F000F1E091119FEF8FEF9193919391939193CF
:102300008150D0F70895DF92EF92FF920F931F93C1
:10231000CF93DF937C01D22E8B01040F111DEB01B3
:1023200077FF02C0D0E0C0E0C8010134110514F00D
:1023300080E490E0C817D9075CF480E8E816F1045F
:1023400028F44D2DBE01C7010E94E8102196ECCF64
:10235000DF91CF911F910F91FF90EF90DF90089543
:10236000CF92DF92EF92FF920F93CF93DF936C01A6
:102370007B01C42FD22F6034710520F4202FC601B9
:102380000E94A710B7016D0F711D61507109603473
:10239000710528F4202F4C2FC6010E94A710202F72
:1023A0004D2FB701C6010E948311C6018C0F911DEC
:1023B000202F4D2FB7010197DF91CF910F91FF9003
:1023C000EF90DF90CF900C948311CF92EF920F9308
:1023D000CF93DF93EC018E816A3069F49D819C83F9
:1023E0006985860F8E8381E090E0DF91CF910F9118
:1023F000EF90CF9008956F33F9F098F46E3209F4AE
:1024000058C048F49EE36132C1F098859D5F8C818D
:10241000890F8C83E8CF90ED960F9A30B0F794E057
:1024200046C0613490F36B3508F440C09FE9960FC5
:102430009A3158F799EB3BC090E461E0680F062EA3
:10244000000C770BAC810A2E000CBB0BECEAF0E021
:102450002DEA30E08F81813071F50491F901E4902B
:102460004EEA50E09923D1F041E050E08E2D877084
:1024700011F450E040E02E2D269526952695240F48
:10248000352F311D029FF001039FF00D11249E9FF7
:10249000A0019F9F500D112442555F4F9AEFC92E06
:1024A00030E020E0CD010E94A00EAFCF9FEB960F51
:1024B000C4CF9FE3C2CF0491F901E4904EEA50E00B
:1024C0009923D1F041E050E08E2D877011F450E057
:1024D00040E02E2D269526952695240F352F311D6B
:1024E000029FF001039FF00D11249E9FA0019F9F6A
:1024F000500D112442555F4F8BEFC82ED1CF089558
:1025000090E080E00895009769F0FC0101900020C0
:10251000E9F73197AF01481B590BBC018EE196E0FA
:102520000C94730E90E080E008951F920F920FB606
:102530000F9211248F939F938091E1009091E1007D
:10254000937F9093E10083FF0FC01092E90091E028
:102550009093EB001092EC0092E39093ED001092B8
:10256000C20198E09093F00082FF22C093E0909324
:10257000E9009091F200992319F09AE39093E80012
:102580009091B301992341F09091B30191509093B0
:10259000B301911101C05D9A9091C101992341F05D
:1025A0009091C10191509093C101911101C0289A5D
:1025B00084FF18C08091E2008E7E81608093E200EB
:1025C0008091E1008F7E8093E1008091B4018E7E46
:1025D00080618093B4019F918F910F900FBE0F90F7
:1025E0001F90189580FFF7CF8091E2008E7E80616A
:1025F0008093E2008091E1008E7E8093E1008091E3
:10260000B4018E7E8160E5CF1F920F920FB60F92BC
:102610001124CF92DF92EF92FF920F931F932F938B
:102620003F934F935F936F937F938F939F93AF935A
:10263000BF93EF93FF93CF93DF93CDB7DEB76C9744
:10264000DEBFCDBF1092E9008091E80083FF25C076
:1026500068E0CE0145960E94B70D82EF8093E800B6
:102660008D8987FF39C09091E80090FFFCCF982FAB
:10267000907609F034C19E894F89588D2F89F88C46
:10268000911131C0803861F58091B2018093F100E1
:102690001092F1008EEF8093E8006C960FB6F894DC
:1026A000DEBF0FBECDBFDF91CF91FF91EF91BF9104
:1026B000AF919F918F917F916F915F914F913F91DA
:1026C0002F911F910F91FF90EF90DF90CF900F907F
:1026D0000FBE0F901F9018959EEF9093E800C7CF04
:1026E0001092F100D5CF913059F48111D3CF413000
:1026F000510581F68091B2018D7F8093B201CACFDE
:10270000933049F48111C6CF4130510519F68091BB
:10271000B2018260F2CF953041F48091E80080FFF1
:10272000FCCF20682093E300B5CF963009F0A9C014
:102730000B8D1C8D22E01092E9001092B0011092D6
:10274000AF01F2122EC01092AE011092AD010E94A4
:10275000860D1F8299E09983FA8291E09E8390EA28
:1027600098879AEF99872091AF013091B001275F48
:102770003F4F3C832B838D831092E9001092B00170
:102780001092AF011093AE010093AD0149E050E00B
:10279000BE016F5F7F4F80E00E94600D0E94860D3A
:1027A00079CF1093AE010093AD010E949D0CDC0126
:1027B00012960D911C910115110509F451C1D80112
:1027C000ED91FC910480F581E02DBE016B5E7F4FA1
:1027D000C8010995009709F03EC1F80100851185EF
:1027E000EACFF3E0FF120EC08F89882309F440C0BE
:1027F000823061F440E867E08BE298E10E94801546
:10280000811148CF81E28093EB0047CF813029F4DA
:1028100040E86BE08FE198E1F1CF833099F70E94B7
:102820009D0CDC011296ED90FC908E010F5F1F4F06
:102830006801E114F10479F0D701ED91FC91068073
:10284000F781E02DB801C7010995080F111DF701A7
:10285000E084F184EECFD8011C92F60101900020B3
:10286000E9F73197BF016C197D0940E0C601C6CF79
:1028700069E078E1FB01449150E080E80E94600D3E
:1028800009CF973009F4BECF983021F481E08093CE
:10289000F10000CF993009F0FDCE837009F0B2CF7E
:1028A000EFE1F1E081E031E096E32191222371F044
:1028B0008093E9003093EB00DF0111972C91209376
:1028C000EC009093ED008F5F873079F78EE780936F
:1028D000EA001092EA008F898093C201DBCE8B8DD3
:1028E0009C8D1092E9001092B0011092AF0190936C
:1028F000AE018093AD01898D811192C08E899D8931
:10290000913A49F4813209F07DCF47E050E064E02C
:1029100071E080E0B3CF913209F074CF833269F473
:102920008F89988DB0E0A0E0809300019093010121
:10293000A0930201B0930301ADCE803269F480917F
:10294000E80082FFFCCF67E084E091E00E94B70DD1
:102950008BEF8093E8009ECE823209F09BCE8F8968
:1029600080930B01EEEFFFE7859194918B3F9C4D97
:1029700051F1E0E0F8E08091040190910501A0910F
:102980000601B0910701803B9440A105B105F1F427
:1029900080910B0180FD1AC0EE3F8AE0F80789F5AF
:1029A00087E797E791838083809160008093B101EE
:1029B00088E19BE00FB6F894A895809360000FBE65
:1029C0009093600067CEEEEFFAE0D5CF80819181E1
:1029D0008737974709F05ECEA8958091600088619F
:1029E000809360008091B10180936000EE3F2AE007
:1029F000F20789F08091FE0A9091FF0A918380830B
:102A000049CE808191818737980751F29093FF0AD0
:102A10008093FE0AC5CF1092FF0A1092FE0A3ACEAA
:102A20000E949D0CDC0112960D911C91011511055F
:102A300009F4E8CED801ED91FC910190F081E02DF0
:102A4000BE016B5E7F4FC8010995811123CEF8014D
:102A500000851185EBCF181619060CF41BCED2CECB
:102A6000F1E0FF12BECE6DE078E104CF0F920FB619
:102A70008F939F93EF93FF938091A4018D5F8D3788
:102A800008F08D578093A401E5EAF1E080818E4F34
:102A9000808391819F4F918382818F4F8283838135
:102AA0008F4F8383E9EAF1E080818F5F80838181AA
:102AB0008F4F818382818F4F828383818F4F838366
:102AC0008FB18F6066991C9B88278F3681F4809127
:102AD000A301981B963068F0E0E0F8E087E7808378
:102AE000818388E180936000F0936000FFCF909332
:102AF000A301FF91EF919F918F910FBE0F901895B9
:102B0000EF92FF920F931F93CF93DF93F82E192F1D
:102B1000E62E042F81E0860F880F0E94320D83E09D
:102B20000E94320DCF2DD12FEC0EFD2EF11CCE15B3
:102B3000DF05B9F007FF13C0FE0184910E94320D3A
:102B4000182F80E00E94320D812321968111EFCF52
:102B5000DF91CF911F910F91FF90EF9008958881A1
:102B6000EDCF81E0F5CF1092C8051092C70588EE31
:102B700093E0A0E0B0E08093C9059093CA05A093CC
:102B8000CB05B093CC0589E291E09093C605809384
:102B9000C5058FEF9FEF9093D2058093D1051092DA
:102BA0001D0610921C0687E491E090931B0680930B
:102BB0001A0610922106109220068BE391E0909362
:102BC0001F0680931E0688E08093270691E090936D
:102BD0002606109223061092240610922206909345
:102BE0002506109229061092280610922A06809334
:102BF0003B068CE080933C0680E090E0A0E7B2E4E6
:102C000080932B0690932C06A0932D06B0932E064E
:102C100080E090E0A0EDB1E480932F069093300621
:102C2000A0933106B093320680911001909111016A
:102C3000A0911201B091130180933E0690933F063C
:102C4000A0934006B0934106E2E4F6E098E08CE001
:102C5000908B818B108211821282138214821582D2
:102C600016821782789626E0E23AF20789F70895ED
:102C7000CDB7DEB7A997DEBFCDBF789483E084BD22
:102C800083E085BD81E080936E00E1E8F0E083E0C1
:102C90008083E0E881E08083E1E983E08083E0E90C
:102CA00081E08083E1EC87E08083E3EC81E0808356
:102CB000E0EC82E08083E2EC81E08083EAE787E079
:102CC0008083806880831092C2011092B2011092BA
:102CD000B4018091D70081608093D70080EA80930F
:102CE000D80089B5806189BD89B5826089BD09B484
:102CF00000FEFDCF81E090E00E94C40D8091D800DD
:102D00008F7C80618093D8008091E000807F8093E9
:102D1000E0008091E1008E7E8093E1008DE0809361
:102D2000E200559A209A81EC80937C0081EF85B96E
:102D300087EE84B982E38BB982EF8AB9769A6E986E
:102D400080EF81BB10BA80E58CBD81E08DBD85E050
:102D50000E949C105F9A85E00E949C105C98E1E2C2
:102D6000F7E085918EBD00000DB407FEFDCFEE3279
:102D7000C1F75C9A81E88093640081E080936500EC
:102D80000E94731180E80E9468118823A9F05C9862
:102D900085EA8EBD00000DB407FEFDCF5C9A2E982B
:102DA0002F982D988091640080628093640081E068
:102DB00083BF889513BEFCCF84E00E9468118823EE
:102DC000B9F12D9884E80E9468118823A1F02D9A0A
:102DD00088EC0E949C102F986FEF82E090E00E9498
:102DE000BD1E84EF91E00E94C40D2F9A84E80E94DA
:102DF00068118111FBCF84E10E9468118823A1F042
:102E00002D9A88EC0E949C102E9860E082E090E061
:102E10000E94BD1E84EF91E00E94C40D2E9A84E1B1
:102E20000E9468118111FBCF88EC0E949C10C4CFD6
:102E30002D9A82E090E00E94B51E882309F464C0B8
:102E40003E9A3F9A81E090E00E94B51E082F0470E0
:102E5000F02E81FF0CC001112E9801EF1FEF80E4CE
:102E60000E946811882309F452C02E9A2F9A82E397
:102E70000E949C100E949F108111F9CF80916400E4
:102E80008E7F8093640080917A00806480937A00C2
:102E900080917A0086FDFCCF009178001091790036
:102EA0000E945B0EAB01BC01C801B0E0A0E0DC01F8
:102EB000992788278C019D01040F151F261F371F96
:102EC000C901B8012091640021602093640061155C
:102ED00071058105910511F00E94AC1E10922A0621
:102EE0008EE297E090932906809328068091A101B5
:102EF000882309F4A7C01092A10180E090E0892BFB
:102F0000A9F30E940000F2CF3E983F989BCFFF208C
:102F100029F00430110511F42E9A2F9881E00E94B7
:102F2000450C202F2770E22EA80133E055954795D8
:102F30003A95E1F79A013695322F22273795279552
:102F40002B533E4F70E060E04E3F8FEF580761F12A
:102F500090E080E0DB01AF58B94F6901E0E8CE0EA8
:102F6000D11CFD01E80FF91FE491F0E03F010E2CA8
:102F700002C0660C771C0A94E2F74F3F540739F001
:102F80005901A80EB91EF50194889628948AEE205E
:102F900039F05601A80EB91EF50194889728948A35
:102FA000019688359105E9F64F5F5F4F20583F4FF6
:102FB000685A7F4F603B710539F60E9473118FE0AC
:102FC0000E949C100F5F1F4F0931110509F047CF78
:102FD000FF2011F02F9A2D9880E991E00E94C40DF6
:102FE0002D9A81E090E00E94B51E80FF40CF8AE0DC
:102FF00090E00E94B51E9FEF980F9E3F08F037CFDC
:1030000022E330E030939C0120939B0128E330E0E1
:1030100030939E0120939D010BE010E0682F8AE120
:1030200096E00E94FE10C8010E94B51E0F5F1F4F60
:103030000131110599F70E94731188EE93E00E9407
:10304000C40D15CF8091A5019091A201182F191BD5
:10305000103140F41F3009F450CF81E083BF8895D0
:1030600013BE4BCF91E09093A1018093A201EFE9B1
:10307000F1E0808191810196808391838091C301E9
:103080008093C4010E949F108093C30180E00E943E
:10309000761110929E0110929D0110929C01109247
:1030A0009B01E0911906E730E8F4F0E0E65AF74EAC
:1030B0000C941721611875187A187F18A718AC1886
:1030C000DD1880919F019091A00164EB70E00E9457
:1030D0000321892B19F481E08093190685EC93E193
:1030E0000E9484100E94731108CF0E94540C83EC3C
:1030F0009FE0F6CF0E94540C81EC9BE0F1CF8091D1
:103100009F019091A00165E070E00E940321892B4E
:1031100019F481E00E94761180919F019091A001A5
:103120006AE070E00E940321892B19F480E00E947C
:10313000761180919F019091A00168E770E00E9454
:103140000321892B79F684E080931906CBCF0E9466
:10315000540C8FEB97E0C4CF80919F019091A00118
:1031600083709927892B71F480912A06E0912806B3
:10317000F0912906E80FF11DE491EE2319F08F5F1D
:1031800080932A0610E0E0912A066091280670914B
:1031900029061E1750F4610F711DFB0164918AE12D
:1031A00096E00E94FE101F5FEECFE60FF72FF11D95
:1031B000E491E11197CF86E0C7CF80E80E946811C3
:1031C0008823B1F02DEC3CEC4CE45EE360913706D3
:1031D000709138068091390690913A060E94321F0C
:1031E00060933706709338068093390690933A06B9
:1031F00080E10E9468118823B1F02DEC3CEC4CE496
:103200005EE360913706709138068091390690919F
:103210003A060E94331F60933706709338068093F6
:10322000390690933A0680E20E9468118823C1F023
:103230002DEC3CEC4CE45EE3609133067091340677
:1032400080913506909136060E94321F60933306B6
:1032500070933406809335069093360610923D069F
:1032600080E40E9468118823C9F02DEC3CEC4CE40A
:103270005EE360913306709134068091350690913B
:1032800036060E94331F6093330670933406809392
:1032900035069093360681E080933D0620E030E0CD
:1032A000A90160912F0670913006809131069091AE
:1032B00032060E949F1F87FF08C010922F061092AF
:1032C0003006109231061092320680913C0660E47E
:1032D00070E0681B7109072E000C880B990B0E9487
:1032E0004E206B017C01AC019B0160912F06709117
:1032F000300680913106909132060E94FE20181609
:1033000044F4C0922F06D0923006E0923106F0923B
:10331000320620E030E0A90160912B0670912C0666
:1033200080912D0690912E060E949F1F87FF08C056
:1033300010922B0610922C0610922D0610922E063B
:1033400080913B0660E870E0681B7109072E000C55
:10335000880B990B0E944E206B017C01AC019B01F4
:1033600060912B0670912C0680912D0690912E066F
:103370000E94FE20181644F4C0922B06D0922C0610
:10338000E0922D06F0922E062AE939E949E95FE339
:10339000609133067091340680913506909136061F
:1033A0000E94A41F4B015C01809233069092340668
:1033B000A0923506B09236062AE939E949E95FE379
:1033C00060913706709138068091390690913A06DF
:1033D0000E94A41F6B017C01C0923706D092380670
:1033E000E0923906F0923A06A501940160912B060D
:1033F00070912C0680912D0690912E060E94331F0D
:1034000060932B0670932C0680932D0690932E06C6
:10341000A701960160912F067091300680913106C8
:10342000909132060E94331F60932F0670933006EE
:10343000809331069093320602E416E01BA30AA3A0
:1034400018011DA21CA280902B0690902C06A09023
:103450002D06B0902E0680912F0690913006A091F7
:103460003106B09132068EA39FA3A8A7B9A7D101B8
:1034700055968C915597811140C0ECA1FDA1EB5E52
:10348000F94F11A556961C920E945D1E29E730E067
:1034900040E050E00E94CF1E645C7F4F8F4F9F4FF3
:1034A0000E944E200E941D2070E080919F0190910B
:1034B000A0010E940321892B01F50E945D1E22E0DC
:1034C00030E040E050E00E94CF1EF101628B6623A5
:1034D00009F4B6C1613009F4BCC1612F70E090E01D
:1034E00080E00E944C20D10114966D937D938D93C2
:1034F0009C931797E1E05596EC93D10152968C91ED
:10350000882309F4B7C1813009F4C7C1F101C08033
:10351000D180E280F380008910E0B80160587F4FCD
:10352000072E000C880B990B0E944E209B01AC01CA
:10353000C701B6010E94FE2087FD03C0D101559648
:103540001C92F0E0E0E0E01BF10B8F01BF01660F81
:10355000771F072E000C880B990B0E944E209B01B1
:10356000AC01C701B6010E949F1F18161CF0D101C3
:1035700055961C92F1018689882309F4ACC0B801E4
:10358000110F880B990B0E944E209B01AC01C701C3
:10359000B6010E949F1FD10114964D905D906D90D1
:1035A0007C901797181644F520E030E040E053E493
:1035B000C701B6010E94FE2087FF1EC0F10161898C
:1035C00070E0719561957109072E000C880B990BBD
:1035D0000E944E209B01AC01C301B2010E949F1FBB
:1035E000181654F420E030E040E852E4C301B20180
:1035F0000E94FE2087FD03C0D10155961C92A501B3
:103600009401C701B6010E94FE20181694F42AE026
:1036100037ED43EA5DE3F10160857185828593852D
:103620000E94331FD10118966D937D938D939C93C7
:103630001B97A5019401C701B6010E949F1F87FF38
:1036400012C02AE037ED43EA5DE3F1016085718540
:10365000828593850E94321FD10118966D937D93C8
:103660008D939C931B972EA13FA148A559A5C301FB
:10367000B2010E94FE20181694F42AE037ED43EAC6
:103680005DE3F10164857585868597850E94331F0A
:10369000D1011C966D937D938D939C931F972EA1C2
:1036A0003FA148A559A5C301B2010E949F1F87FFF2
:1036B00012C02AE037ED43EA5DE3F10164857585C8
:1036C000868597850E94321FD1011C966D937D934C
:1036D0008D939C931F97F1018789811102C0148AF1
:1036E000138A2AE939E949E95FE3D10118966D9116
:1036F0007D918D919C911B970E94A41F2B013C01F1
:10370000F10140865186628673862AE939E949E9E2
:103710005FE364857585868597850E94A41F4B01AC
:103720005C01D1011C968D929D92AD92BC921F9727
:10373000A3019201C701B6010E94331FF10160830A
:10374000718382839383A50194016481758186814D
:1037500097810E94331FD10114966D937D938D93B1
:103760009C9317970CA11DA10F5F1F4F1DA30CA3C6
:1037700018E1210E311C0CA11DA10430110509F026
:1037800062CE1092230610922206109224068FE435
:1037900091E00E9483126091150670911606809147
:1037A0001706909118060E941D209B0150E040E0F2
:1037B00019A28E010F5D1F4FCA01B9012AE030E046
:1037C00040E050E00E94011F605DD8016E938D01C2
:1037D000211531054105510579F7109769F0FD0173
:1037E00001900020E9F73197AF014A1B5B0BBD0147
:1037F0008EE196E00E94730EEAA1FBA1B188C08819
:1038000064817581868197810E9416207B01AAA11F
:10381000BBA16D917D918D919C910E9416208B0191
:10382000C60ED72ED11C0C151D050CF042C021E090
:103830004B2DB701C8010E9483110F5F1F4FF3CFBB
:1038400080E090E0A0E0B3E480839183A283B3831F
:1038500044CE608970E0719561957109072E000C66
:10386000880B990B0E944E20F10160837183828343
:10387000938333CE2AE037ED43EA5DE3F1016085BF
:103880007185828593850E94321FD10118966D93B0
:103890007D938D939C931B9739CE2AE037ED43EAB5
:1038A0005DE3F10160857185828593850E94331FF8
:1038B000ECCF20E030E040E450E4EAA1FBA16481D9
:1038C0007581868197810E94331F0E9416206B01AB
:1038D00020E030E040E050E4AAA1BBA16D917D91D1
:1038E0008D919C910E94331F0E941620CB0100E015
:1038F00022E041E0B6010E94B01120E030E040E457
:1039000050E4EAA1FBA164817581868197810E94C0
:10391000331F0E9416206B0120E030E040EA50E4A3
:10392000AAA1BBA16D917D918D919C910E94331FA5
:103930000E941620CB0122E041E0B6010E94B011A6
:10394000EAA1FBA180809180A280B380C0902B0669
:10395000D0902C06E0902D06F0902E0620E030E06E
:1039600040E051E4C701B6010E94331F9B01AC0146
:10397000C501B4010E949F1F18160CF4D9C020E0A5
:1039800030E040E051E4C501B4010E94331F9B01C7
:10399000AC01C701B6010E949F1F18160CF4C8C0E5
:1039A000AAA1BBA114968D909D90AD90BC90179745
:1039B000C0902F06D0903006E0903106F09032068D
:1039C00020E030E040E451E4C701B6010E94331F1B
:1039D0009B01AC01C501B4010E949F1F18160CF495
:1039E000A7C020E030E040E451E4C501B4010E94EA
:1039F000331F9B01AC01C701B6010E949F1F18161F
:103A00000CF496C088E00E946811882309F493C0E2
:103A100020E030E040E051E460912F0670913006E4
:103A200080913106909132060E94321F0E9416202A
:103A3000162F20E030E040EC51E460912B067091AD
:103A40002C0680912D0690912E060E94321F0E9416
:103A500016206093230660932206109324068DE5BA
:103A600091E00E94831220E030E040E051E4AAA1FE
:103A7000BBA114966D917D918D919C9117970E9499
:103A8000321F0E941620162F20E030E040E051E463
:103A9000EAA1FBA160817181828193810E94321F22
:103AA0000E9416206093230660932206109324063A
:103AB000AAA1BBA157968C91811118C00E945D1ECE
:103AC00025E030E040E050E00E94CF1E660F771FF7
:103AD0006C5E7E4FFB0180819181AAA1BBA15496AF
:103AE0009C938E93539781E057968C93EAA1FBA108
:103AF000838994890E94831281E0AAA1BBA1569672
:103B00008C9323E333E343EB5EE3609115067091FE
:103B1000160680911706909118060E94331F609335
:103B2000150670931606809317069093180603C027
:103B3000EAA1FBA1178AEAA1FBA17896FBA3EAA35D
:103B4000E25AF64009F058CE60912F067091300687
:103B500080913106909132060E9416206B0160918F
:103B60002B0670912C0680912D0690912E060E94B6
:103B70001620CB0101E020913C0640913B06B601A6
:103B80000E94B01120E030E040E450E460912F0644
:103B90007091300680913106909132060E94331F59
:103BA0000E9416206B0120E030E040E050E460917C
:103BB0002B0670912C0680912D0690912E060E9466
:103BC000331F0E941620CB0122E041E0B6010E9483
:103BD000B01120E030E040E450E460912F06709195
:103BE000300680913106909132060E94331F0E9468
:103BF00016206B0120E030E040EA50E460912B0693
:103C000070912C0680912D0690912E060E94331FF4
:103C10000E941620CB0122E041E0B6010E94B011C3
:103C200061CA8F929F92AF92BF92CF92DF92EF9232
:103C3000FF92CF93DF93EC01688179818A819B8128
:103C4000611571058105910521F464E279ED8BE53B
:103C500097E02DE133EF41E050E00E94CF1E490193
:103C60005A019B01AC01A7EAB1E40E94EE1E6B0170
:103C70007C01ACEEB4EFA50194010E94FC1EC60EBF
:103C8000D71EE81EF91EF7FE06C081E0C81AD1084B
:103C9000E10880E8F80AC882D982EA82FB82C7017B
:103CA000B6019F77DF91CF91FF90EF90DF90CF909B
:103CB000BF90AF909F908F9008958F929F92AF92F8
:103CC000BF92CF92DF92EF92FF9260910C017091C0
:103CD0000D0180910E0190910F0161157105810513
:103CE000910521F464E279ED8BE597E02DE133EF66
:103CF00041E050E00E94CF1E49015A019B01AC01F6
:103D0000A7EAB1E40E94EE1E6B017C01ACEEB4EFB9
:103D1000A50194010E94FC1EC60ED71EE81EF91EC6
:103D2000F7FE06C081E0C81AD108E10880E8F80A69
:103D3000C0920C01D0920D01E0920E01F0920F01A1
:103D4000C701B6019F77FF90EF90DF90CF90BF90B3
:103D5000AF909F908F90089560930C0170930D0128
:103D600080930E0190930F010895F999FECF92BDB3
:103D700081BDF89A992780B50895262FF999FECF2D
:103D800092BD81BDF89A019700B4021639F01FBAAE
:103D900020BD0FB6F894FA9AF99A0FBE0895052E31
:103DA00097FB1EF400940E94E61E57FD07D00E9468
:103DB000011F07FC03D04EF40C94E61E509540956D
:103DC000309521953F4F4F4F5F4F089590958095C7
:103DD000709561957F4F8F4F9F4F08950E94231FCD
:103DE000A59F900DB49F900DA49F800D911D11244F
:103DF0000895B7FF0C94EE1E0E94EE1E821B930BDB
:103E00000895A1E21A2EAA1BBB1BFD010DC0AA1F1B
:103E1000BB1FEE1FFF1FA217B307E407F50720F033
:103E2000A21BB30BE40BF50B661F771F881F991FAE
:103E30001A9469F760957095809590959B01AC01F7
:103E4000BD01CF010895A29FB001B39FC001A39F00
:103E5000700D811D1124911DB29F700D811D1124C3
:103E6000911D08955058BB27AA270E944A1F0C9401
:103E7000C4200E94B62038F00E94BD2020F039F402
:103E80009F3F19F426F40C94B3200EF4E095E7FB61
:103E90000C94AD20E92F0E94D52058F3BA17620781
:103EA00073078407950720F079F4A6F50C94F720A2
:103EB0000EF4E0950B2EBA2FA02D0B01B901900145
:103EC0000C01CA01A0011124FF27591B99F0593F89
:103ED00050F4503E68F11A16F040A22F232F342FD1
:103EE0004427585FF3CF469537952795A795F0401F
:103EF0005395C9F77EF41F16BA0B620B730B840B34
:103F0000BAF09150A1F0FF0FBB1F661F771F881FEB
:103F1000C2F70EC0BA0F621F731F841F48F4879543
:103F200077956795B795F7959E3F08F0B0CF939535
:103F3000880F08F09927EE0F9795879508950E94AE
:103F4000892008F481E008950E94B81F0C94C420D1
:103F50000E94BD2058F00E94B62040F029F45F3F37
:103F600029F00C94AD2051110C94F8200C94B3203E
:103F70000E94D52068F39923B1F3552391F3951B43
:103F8000550BBB27AA2762177307840738F09F5F7A
:103F90005F4F220F331F441FAA1FA9F335D00E2EE7
:103FA0003AF0E0E832D091505040E695001CCAF754
:103FB0002BD0FE2F29D0660F771F881FBB1F261717
:103FC00037074807AB07B0E809F0BB0B802DBF01EE
:103FD000FF2793585F4F3AF09E3F510578F00C94BD
:103FE000AD200C94F8205F3FE4F3983ED4F386951F
:103FF00077956795B795F7959F5FC9F7880F911DDE
:104000009695879597F90895E1E0660F771F881FC9
:10401000BB1F621773078407BA0720F0621B730B7C
:10402000840BBA0BEE1F88F7E09508950E941D20BF
:104030006894B1110C94F82008950E94DD2088F056
:104040009F5798F0B92F9927B751B0F0E1F0660F5C
:10405000771F881F991F1AF0BA95C9F714C0B1309D
:1040600091F00E94F720B1E008950C94F720672F9B
:10407000782F8827B85F39F0B93FCCF386957795CC
:104080006795B395D9F73EF49095809570956195B5
:104090007F4F8F4F9F4F0895E89409C097FB3EF4E0
:1040A00090958095709561957F4F8F4F9F4F992385
:1040B000A9F0F92F96E9BB279395F6958795779503
:1040C0006795B795F111F8CFFAF4BB0F11F460FFC3
:1040D0001BC06F5F7F4F8F4F9F4F16C0882311F01B
:1040E00096E911C0772321F09EE8872F762F05C02F
:1040F000662371F096E8862F70E060E02AF09A95CA
:10410000660F771F881FDAF7880F9695879597F9BE
:104110000895990F0008550FAA0BE0E8FEEF161658
:104120001706E807F907C0F012161306E407F507AB
:1041300098F0621B730B840B950B39F40A2661F01F
:10414000232B242B252B21F408950A2609F4A140C2
:10415000A6958FEF811D811D089597F99F6780E8CF
:1041600070E060E008959FEF80EC089500240A94C9
:104170001616170618060906089500240A94121642
:104180001306140605060895092E0394000C11F475
:10419000882352F0BB0F40F4BF2B11F460FF04C022
:1041A0006F5F7F4F8F4F9F4F089557FD9058440F7B
:1041B000551F59F05F3F71F04795880F97FB991F86
:1041C00061F09F3F79F08795089512161306140643
:1041D000551FF2CF4695F1DF08C0161617061806D0
:1041E000991FF1CF86957105610508940895E894AB
:1041F000BB2766277727CB0197F908950E9489206E
:1042000008F48FEF0895AA1BBB1B51E107C0AA1F3A
:10421000BB1FA617B70710F0A61BB70B881F991F67
:104220005A95A9F780959095BC01CD010895EE0FA0
:0E423000FF1F0590F491E02D0994F894FFCF44
:10423E00FFFFFFFF00E10000000000000100000092
:10424E00071625346F0176017B018301890100C1B8
:10425E00808100000000000000B10CD80DD20CC708
:10426E000C180DD60CF40C00000000E511730E8036
:10427E00127F1200000000FE10730E80127F125784
:10428E00656972646F204C6576656C2000492075F7
:10429E0073652041726475626F79204254570057DE
:1042AE00656972646F004E6572640042726F2057CA
:1042BE005446004F6B61793F0053746F70210000BC
:00000001FF
